:100000000F28FF00FF00FF008031C3308600203042
:10001000870020007508F3008231A42A0900102807
:10002000F001F101F20120308400003085000B3036
:100030007322A030840000308500453073222000F8
:10004000953086002030870025288F3032009905B2
:10005000F03099051B1E2A28283021008C0023002F
:100060008C01393024008C0003303C00A400143093
:100070003D009400243023009E009F1190309D008D
:1000800020008C1A9C288C1E4328CF3023009B0014
:1000900008302000EA008230E9005A30E8002522CA
:1000A0000A30EE2170302000E900F830E80001301D
:1000B000EC0004307002031869280A227008273EF9
:1000C000840085016A088000F00AE80A0319E90A39
:1000D0005928223023009B0009302000EA0082309A
:1000E000E9005030E800252204302000EA002730E3
:1000F000E8000030E90025220A30EE210630200019
:10010000EA008230E9006C30E8002522043020004B
:10011000EA002730E8000030E9002522F030200016
:10012000E800FF30E900F830680203189B283C2201
:100130002000E80A93280100223023009B00AC280D
:100140007208A03E84008501230019088000F20A8D
:1001500020009112A201A3012000911AA028A20A56
:100160000319A30A220A031DAC28230A031DAC2885
:1001700022000C1405302000A50021002003031DDF
:10018000E828FF302000EC0043307206031DE3280E
:10019000210022082000EB00210021082000EA00B5
:1001A000A330E8000030E90002306B02A0300319F0
:1001B0006A02031CE32808306B02003003196A024C
:1001C0000318E3289E2120006C082100A1008F293C
:1001D00002302006031D1E2970302000E900F33094
:1001E000E8000130EC000A22A401A40AF330210047
:1001F0002302031C1029F8302302031803292000CE
:100200006A0A031D0F292100230A031D10297030DB
:100210002000E900FF30E8000A226A0A031DA40159
:100220002000240803198F29210021082000E8005C
:10023000210023082000E9003C228F2904302006F9
:10024000031D312922082000E90021002108200097
:10025000E8000130EC000A226A082100A300A40192
:100260008F2906302006031D372901008F2905300C
:10027000200603198F297208031D8D297030200074
:10028000E900F030E8000130EC000A226A08A6001C
:100290007030E900FC30E8000130EC000A226A0806
:1002A0002606031D8D296A0A03198D290230E900EB
:1002B000A030E800EC01F1010830690200300319B8
:1002C000680203186C290A226A08F1076B08F10713
:1002D000E80A0319E90A5C297030E900F130E80006
:1002E0000130EC000A226A087106031D8229710898
:1002F0000319822922000C101F303F00ED008231CB
:10030000A02A8D29F030E800FF30E9003C22F230CD
:100310002000E800FF30E9003C222000A501200079
:100320002508EA00A030E8000030E9002522FF306F
:100330002100A000F20122000C10AC284131200065
:10034000EC013100951115139518A42920006B08B4
:100350003100920020006A08310091001516151531
:100360006322310095160030FF3F20006B083100FA
:10037000920020006A08310091007F3FFE00FF01DB
:10038000FE35FF0D200068087E07840069087F3D68
:100390008500003F31009300013F940013082000C6
:1003A000EC07310014082000EC077F3F1F3A031DC3
:1003B000DB293100951263222000EA0A0319EB0AB7
:1003C0007F3F013EFF3F7F3FFF0020307F02031C45
:1003D000B529EC13310015117F3108004131FF3F81
:1003E0007F3F0319082AFF302000A000FF30A10042
:1003F0000130A0020030A13B200A031DF829210A88
:10040000031DF8297F3FF40001307402FF3FF029FB
:100410007F31080020006C0C3100031C15130318F9
:10042000151720006908310092002000680831008B
:100430009100151400000000310014082000EB00AA
:10044000310013082000EA00080020006A080319A0
:10045000382A6808840069088500000823009A008B
:100460002000E80A0319E90AEA03111A252A352AA5
:1004700023009E180800382A31009511151715150C
:100480007030920020006808310091002000690857
:10049000310093006322310095184B2A1511080092
:1004A000413454342B344E3441344D344534433488
:1004B00044340034413454342B34423441345534C0
:1004C000443437340034553031009600AA30960059
:1004D0009514000000000800413454342B3450348B
:1004E00049344E340034640080010131890B742A90
:1004F0000034FF00FF00FF00FF00FF00FF00FF00CF
:020000040001F9
:08000E00FCFF52FFFFDFFFFFC2
:08E1F00031343234333435348C
:02E1FC000134EC
:00000001FF
