:100000000F28FF00FF00FF008031C3308600203042
:10001000870020007508F3008231A42A0900102807
:10002000F001F101F2012030840000308500083039
:100030008722A030840000308500453087222000D0
:10004000953086002030870025288F3032009905B2
:10005000F03099051B1E2A28283021008C0023002F
:100060008C01393024008C0003303C00A400143093
:100070003D009400243023009E009F1190309D008D
:100080004621223023009B00552845307102031879
:10009000F1017108A03E8400850123001908800049
:1000A000F10A20009112A601A7012000911A45280B
:1000B000A60A0319A70A260A031D5528270A031DA5
:1000C00055281230F00071089F3E84008501000819
:1000D000FE007108FF3E1E00A0302E227E0603198E
:1000E0007428FF302100A00021002003031D912867
:1000F00044307106031D312902302202A030031959
:100100002102031C3129220831009200210021081C
:100110003100910020302000E900A330E800C52123
:10012000312902302006031DA628A4302000EA0051
:1001300021002208310092002100210831009100A5
:10014000210023082000EB00EE2131290430200695
:10015000031DBB28A4302000EA0021002208200053
:10016000E900210021082000E800210023082000E8
:10017000EB008E21312906302006031DC128010025
:10018000312905302006031DC8280530A10031297A
:100190007108031D302972302000EA007030E90038
:1001A0000330E8000130EB008E21AA307206031DF7
:1001B0003029CD30A200AB30A300A030A000023027
:1001C000A10007302102DE300319200203180D2997
:1001D0002630EA002108E9002008E8000230EB00A0
:1001E0008E212608A2072708A33DA31FF928F101A5
:1001F000F10A7108FE00FF012308FD002208FC003F
:10020000FC35FD0D7E087C07A2007F087D3DA30024
:10021000F101A00A0319A10AE128DE308400873029
:100220008500003FFE00013FFF0023087F06031DFD
:100230001B2922087E06031D252922000C101F30D1
:100240003F00ED008231A02A30290030EA007030F2
:10025000310092000330910001302000EB00EE21CC
:10026000F00111301E00A0302E222100B1007008D4
:100270001E00A0301E0000301E000F22FF302100A3
:10028000A000F101013022008C06552820008C1AB4
:1002900008003C304A2220008C1A080022000C146E
:1002A00020008C1E5029CF3023009B0008301E00F8
:1002B00066301E0082301E000F220A304A22223091
:1002C00023009B0007301E0078301E0082301E0085
:1002D0000F2208301E00E0301E0007301E000F22E3
:1002E0000A304A2206301E0080301E0082301E0076
:1002F0000F2208301E00E8301E0007301E000F22BB
:1003000000302000EA00703031009200033091008C
:1003100011302000EB00EE210100080070302000B9
:100320006902003003196802031899293100151376
:100330009B293100151720006B0803190800690874
:10034000310092002000680831009100151400006F
:10035000000020006A088400850131001308800035
:100360002000EA0AEB033100151BC02920006A08AF
:10037000840085013100140880002000EA0AEB03A4
:100380002000E80A0319E90A9B2931009511151389
:100390009518C829151615156F22310095162000DD
:1003A00069080319EB29680884008501003F3100C2
:1003B0009300013F940020006903031DE1293100EF
:1003C00095126F223100910A0319920A2000E80A5F
:1003D000E80AE903CF2931001511080020006B0855
:1003E000031908003100951115171515FF309300FA
:1003F00020006A080319022A6A088400850100089F
:10040000310093006F2231009518032A1511200046
:10041000EB03EA0A3100910A0319920AEE297D3FA3
:100420000319292A7E3F84007F3F850000082300AE
:100430009A007E3F013EFE3FF4017F3F743DFF3F47
:100440007D3FF40001307402FD3F2000111A0F2A95
:10045000252A23009E1C292A7D3108004231FE3FB7
:10046000AB30FF3F7D3F0319472A7D3FF400013049
:100470007402FD3F7D3FFF007E3FFF077F08840041
:1004800085017F3FF40000087407FF3F322A7F3F59
:100490007D3108004131FF3F7F3F0319642AFF305F
:1004A0002000A000FF30A1000130A0020030A13BDD
:1004B000200A031D542A210A031D542A7F3FF400F9
:1004C00001307402FF3F4C2A7F310800413454341C
:1004D0002B344234413455344434373400345530AD
:1004E00031009600AA309600951400000000080024
:1004F000413454342B344E3441344D34453400347B
:10050000413454342B34503449344E340034640074
:1005100080010131890B882A0034FF00FF00FF00B1
:10052000FF00FF00FF00FF00FF00FF00FF00FF00D3
:10053000FF00FF00FF00FF00FF00FF00FF0001348D
:020000040001F9
:08000E00FCFF52FFFFDFFFFFC2
:02E00600AA343A
:00000001FF
