:100000000F28FF00FF00FF008031C3308600203042
:10001000870020007508F3008231A42A0900102807
:10002000F001F101F20120308400003085000B3036
:100030006F22A03084000030850045306F22200000
:10004000953086002030870025288F3032009905B2
:10005000F03099051B1E2A28283021008C0023002F
:100060008C01393024008C0003303C00A400143093
:100070003D009400243023009E009F1190309D008D
:1000800020008C1A9C288C1E4328CF3023009B0014
:1000900008302000EA008230E9005630E8002122D2
:1000A0000A30EA2170302000E900F830E800013021
:1000B000EC00043070020318692806227008273EFD
:1000C000840085016A088000F00AE80A0319E90A39
:1000D0005928223023009B0009302000EA0082309A
:1000E000E9004C30E800212204302000EA002730EB
:1000F000E8000030E90021220A30EA210630200021
:10010000EA008230E9006830E80021220430200053
:10011000EA002730E8000030E9002122F03020001A
:10012000E800FF30E900F830680203189B28382205
:100130002000E80A93280100223023009B00AC280D
:100140007208A03E84008501230019088000F20A8D
:1001500020009112A201A3012000911AA028A20A56
:100160000319A30A220A031DAC28230A031DAC2885
:1001700022000C1405302000A50021002003031DDF
:10018000E828FF302000EC0043307206031DE3280E
:10019000210022082000EB00210021082000EA00B5
:1001A000A330E8000030E90002306B02A0300319F0
:1001B0006A02031CE32808306B02003003196A024C
:1001C0000318E3289A2120006C082100A1008B2944
:1001D00002302006031D1A2970302000E900F33098
:1001E000E8000130EC000622A401A40AF33021004B
:1001F0002102031C0C29F8302102031803292000D6
:100200006A0A031D0B2970302000E900FF30E80066
:1002100006226A0A031DA4012000240803198B2961
:10022000210021082000E800210023082000E90027
:1002300038228B2904302006031D2D292208200096
:10024000E900210021082000E8000130EC0006222E
:100250006A082100A300A4018B2906302006031D93
:10026000332901008B290530200603198B297208D8
:10027000031D892970302000E900F030E8000130CA
:10028000EC0006226A08A6007030E900FC30E800A5
:100290000130EC0006226A082606031D89296A0A35
:1002A000031989290230E900A030E800EC01F101CE
:1002B0000830690200300319680203186829062211
:1002C0006A08F1076B08F107E80A0319E90A5829D7
:1002D0007030E900F130E8000130EC0006226A08D5
:1002E0007106031D7E29710803197E2922000C1056
:1002F0001F303F00ED008231A02A8929F030E8004C
:10030000FF30E9003822F2302000E800FF30E90039
:1003100038222000A50120002508EA00A030E800CE
:100320000030E9002122FF302100A000F20122006C
:100330000C10AC2841312000EC013100951115134F
:100340009518A02920006B083100920020006A084F
:1003500031009100151615155F22310095160030F9
:10036000FF3F20006B083100920020006A08310036
:1003700091007F3FFE00FF01FE35FF0D2000680861
:100380007E07840069087F3D8500003F31009300AF
:10039000013F940013082000EC07310014082000EE
:1003A000EC077F3F1F3A031DD729310095125F22CA
:1003B0002000EA0A0319EB0A7F3F013EFF3F7F3F1F
:1003C000FF0020307F02031CB129EC13310015110E
:1003D0007F3108004131FF3F7F3F0319042AFF307E
:1003E0002000A000FF30A1000130A0020030A13B9E
:1003F000200A031DF429210A031DF4297F3FF4007C
:1004000001307402FF3FEC297F31080020006C0CA2
:100410003100031C1513031815172000690831005B
:1004200092002000680831009100151400000000BF
:10043000310014082000EB00310013082000EA000E
:10044000080020006A080319342A68088400690833
:100450008500000823009A002000E80A0319E90A31
:10046000EA03111A212A312A23009E180800342A8F
:10047000310095111517151570309200200068088D
:100480003100910020006908310093005F223100A3
:100490009518472A15110800413454342B344E3432
:1004A00041344D34453443344434003441345434BD
:1004B0002B344234413455344434373400345530CD
:1004C00031009600AA309600951400000000080044
:1004D000413454342B34503449344E3400346400A5
:1004E00080010131890B702A0034FF00FF00FF00FA
:1004F000FF00FF00FF00FF00FF00FF00FF00FF0004
:10050000FF00FF00FF00FF00FF00FF00FF00FF00F3
:10051000FF00FF00FF00FF00FF00FF00FF00FF00E3
:10052000FF00FF00FF00FF00FF00FF00FF00FF00D3
:10053000FF00FF00FF00FF00FF00FF00FF00FF00C3
:020000040001F9
:08000E00FCFF52FFFFDFFFFFC2
:02E1FC000134EC
:00000001FF
