:100000003928FF00FF00FF007E14803120007F08A8
:10001000F900901E12289012E430F4000230F5002E
:10002000F6014A232000911E1B280230F8007808B0
:10003000B800EE232128111E21282100111E21289D
:10004000CA23200091189110111B11132700931E31
:10005000342820008C1E2E28BC0132280330F800E2
:100060007808BC002700931279082000FF007E105A
:1000700009003A28FA01FB01FC01FD01203084004F
:100080000030850036300025A03084000030850027
:100090004E3000257E102000742AAB302000DD0099
:1000A0005D08E0001230DD005D08DF002B24123A0D
:1000B000031DD02812302000DD005D08E800443028
:1000C0007823043020004402031C9628D630D60042
:1000D0000030D7000830DD005D08D8000530DE00B4
:1000E0005E08D900E6308E210D302000440203184E
:1000F0008728DE30D6000030D7000830DD005D08EC
:10010000D8000530DE005E08D900E6308E21E630EA
:100110002000D6000030D7001130DD005D08D80087
:100120000630DE005E08D90045308E2144302000C4
:10013000D6000030D7001130DD005D08D800073050
:10014000DE005E08D90060308E2120005508600670
:100150000319D828E030E8008430E9000930DD00D8
:100160005D08EA00AD22E6302000E8000030E9003A
:100170000830DD005D08EA00AD22D6302000E8003E
:100180008430E9000A30DD005D08EA00AD2260300D
:100190002000E8000030E900EA01EA0AAD22080088
:1001A000210053082000DD005D082100D400080074
:1001B00020004403031D1C294D30D6000030D70019
:1001C0000830DD005D08D8000430DE005E08D9008C
:1001D000E6308E2102302000DD005D08C400E830EA
:1001E000D6008730D7000830DD005D08D800D9017F
:1001F000D90AD6308E21003A031903290130200094
:10020000DD005D08C407E0302000D6008730D7004D
:100210000830DD005D08D800D90145308E21E63078
:100220002000D6000030D7000830DD005D08D8007F
:10023000D9014D308E215D290B3020004406031D6D
:1002400036298B134530EA000030EB00F0303100E6
:100250009200043091006C3086000030870010302E
:1002600081008131EE2180318B175D29093020001A
:100270004406031D4E298B13EA01EB01F0303100D7
:100280009200033091006C3086000030870001300E
:1002900081008131EE21803101005D290C30200088
:1002A000440603195D290D304406031D5D29053000
:1002B000DD005D08E8000A308924AB302000DD0055
:1002C0005D08D5004430D6000030D7001130DD0085
:1002D0005D08D8000730DE005E08D90055308E2159
:1002E000043020004402031C8329E630D60000308D
:1002F000D7001130DD005D08D8000530DE005E0853
:10030000D90045308E2144302000E8000030E9005B
:100310005F08DD005D08EA00AD2208002000DC0077
:10032000DA01DA0ADB0158080319202A5908031DEB
:100330009F2956088400570885000008B6295903EC
:10034000031DB12956088400570885000008E800FD
:100350005C0886008701010868060319152ADA017E
:10036000152A04305906031DBD29AA30E8005C088F
:100370008600870168088100152A05305906031D8B
:10038000DB29AB30E8005C0886008701680881073C
:100390005808E8005C08860087016808810656084E
:1003A0008400570885000008E8005C088600870183
:1003B00068088106F62906305906031D042A5608E6
:1003C0008400570885000008E8005C088600870163
:1003D000680881065808E8005C08860087016808FC
:1003E00081065C0886008701AB3081020130E8009D
:1003F0006808DB0708305B06031D152A0830D602A3
:100400000030D73BDB01152A07305906031D152A9A
:1004100056088400570885000008E8005C0886003C
:100420008701680881070130DC020130E8006808B4
:10043000DC070130D6070030D73D0130D8029329C0
:100440005A0808007A08031D3C2AE9302000E80019
:100450008430E9000730D7005708EA00AD22E030C9
:100460002000E8008730E9000830D7005708EA008C
:10047000AD22FA01FA0A08007A03031D592AF9305D
:100480002000E8008430E9000630D7005708EA0071
:10049000AD22E8302000E8008730E9000830D700BE
:1004A0005708EA00AD2202302000D7005708FA00B2
:1004B00008008B1387302000EB00E830EA00F030B2
:1004C00031009200043091006C30860000308700CB
:1004D000103081008131EE21823122000C14200085
:1004E0008C1E6F2A01000800A12302302000E700C3
:1004F0006708E8000A308924AE302000E800843024
:10050000E9000F30E7006708EA00AD22982A43357A
:10051000203E86008701403FE300413FE400433531
:10052000203E86008701413F8A00403F0A00823119
:1005300045242000E7006708C30008304302031C7D
:10054000872A0625003A0319982A2000971363008A
:100550000000000020009717982A8B1320006A08DB
:100560000319E02A20006808840069088500000853
:10057000D60021003808A03E8600870120005608DA
:1005800081000130E8070030E93D0130EA02173010
:1005900021003802031CCE2AB801D42A01302000E1
:1005A000D60056082100B80739083806031DAE2AC0
:1005B000BA01BA0A11168B173A080319AD2ADC2AB8
:1005C000210011168B1708002000E6010830660292
:1005D0000318142B6608383E8600870101080319AA
:1005E000002B6608383E86008701013081026608CC
:1005F000383E860087010108031D002B66085E2433
:1006000001302000E5006508E60704306606031D9A
:10061000E62A64304202031C0F2BC201E62A08308E
:10062000E5006508E600E62A0130E5006508C20736
:1006300008008B1372080319462B70088400710898
:1006400085000008F30021003808A03E86008701DD
:10065000730881000130F0070030F13D0130F202F3
:1006600017303802031C362BB8013A2B0130F30047
:100670007308B80739083806031D1A2BBA01BA0ADD
:1006800011168B173A080319192B422B210011164A
:100690008B1708007D08031D662B20004035203E87
:1006A000860087017408C03F7508C13F7608F700CF
:1006B0004008303E86008701770881000130F7004E
:1006C0007708C007083040020318C001FD01200070
:1006D00041084006031D0800FD01FD0ACA30F00074
:1006E0008430F1000C30F7007708F200192308007D
:1006F0002000EA006808031908008B132100540841
:10070000BB3E8600870101082000E9006A088600D8
:10071000870169088100173021005402031C922BC5
:10072000D401982B01302000E90069082100D4078A
:100730008B1701302000E9006908EA070130E80260
:100740007A2B01302000E8000030E900F1249C24DD
:10075000BD2401302000E8070030E93D680369044A
:10076000031DA92B803032009800853020009800AE
:1007700095010A30960090122100901620009717DC
:1007800004309F00270092169116210010160B17B7
:100790008B17080021003908380603193A08031995
:1007A000EC2B3908A03E86008701010823009A003F
:1007B000173021003902031CDF2BB901E32B013074
:1007C000F0007008B90739083806031911123A0801
:1007D00003190800BA0108001112080023001908C3
:1007E000F00021005308BB3E86008701700881009D
:1007F00055080319FF2B5408530603190800D501A7
:1008000017305302031C062CD3010A2C0130F000D0
:100810007008D30754085306031D0800D501D50AF4
:1008200008000130FC0222000C0801392000E80019
:100830000130E80622000C0820006806FE39680630
:1008400022008C007C08031908007B082000E800C7
:100850006808B90008008B1321005403FF3A5307BE
:10086000183E2000E8006808E900210054085302FF
:10087000031C412C5403FF3A53072000E80068088A
:10088000E9008B17200069080800FF302000E8000D
:100890006808E9008B134008410603195B2C4108E6
:1008A000E8006808E9000130E8006808C10708307E
:1008B00041020318C1018B17690808002000E200FB
:1008C00004306206031D6A2C222203302000E1005E
:1008D0006108BC006203031D6E2C11242000620815
:1008E000031D08004D2008002000E9017B2C013089
:1008F000E8006808E907083069020318872C6908CE
:10090000383E8600870101080319772CE901690840
:1009100008002000EA006A357C07E9006908FC004D
:100920006808E9006908FB003908031D08007B0816
:10093000E9006908B9000800283021008C00230074
:100940008C01393024008C0003303C00A4001430AA
:100950003D009400383022008C00080020344234DE
:100960006F346F3474342E342E3443344434203492
:10097000563431340A340D340034043023009E00E0
:100980009F1122309B009E1621009116903023006B
:100990009D00080020344F34763465347234663458
:1009A0006C346F3477340A340934003420346334BF
:1009B0007234633420346534723472343A3400341F
:1009C0002034533465347334733469346F346E3483
:1009D0000034413454342B344E3441344D34453496
:1009E00000348F3032009905F03099051B1A080049
:1009F000F62C413454342B34503449344E340034C2
:100A0000640080010131890B012D00347424080039
:100A1000FF00FF00FF00FF00FF00FF00FF00FF00DE
:100A2000FF00FF00FF00FF00FF00FF00FF00FF00CE
:100A3000FF00FF00FF00FF00FF00FF00FF00FF00BE
:100A4000FF00FF00FF00FF00FF00FF00FF00FF00AE
:100FB000FF00FF00FF00FF00FF000134AA34AA3445
:020000040001F9
:08000E00FCFF52FFFFDFFFFFC2
:00000001FF
