:100000000F28FF00FF00FF008031C3308600203042

:10001000870020007508F3008231A42A0900102807

:10002000F001F101F20120308400003085000B3036

:100030007322A030840000308500453073222000F8

:10004000953086002030870025288F3032009905B2

:10005000F03099051B1E2A28283021008C0023002F

:100060008C01393024008C0003303C00A400143093

:100070003D009400243023009E009F1190309D008D

:1000800020008C1A9C288C1E4328CF3023009B0014

:1000900008302000EA008230E9005A30E8002522CA

:1000A0000A30EE2170302000E900F830E80001301D

:1000B000EC0004307002031869280A227008273EF9

:1000C000840085016A088000F00AE80A0319E90A39

:1000D0005928223023009B0009302000EA0082309A

:1000E000E9005030E800252204302000EA002730E3

:1000F000E8000030E90025220A30EE210630200019

:10010000EA008230E9006C30E8002522043020004B

:10011000EA002730E8000030E9002522F030200016

:10012000E800FF30E900F830680203189B283C2201

:100130002000E80A93280100223023009B00AC280D

:100140007208A03E84008501230019088000F20A8D

:1001500020009112A201A3012000911AA028A20A56

:100160000319A30A220A031DAC28230A031DAC2885

:1001700022000C1405302000A50021002003031DDF

:10018000E828FF302000EC0043307206031DE3280E

:10019000210022082000EB00210021082000EA00B5

:1001A000A330E8000030E90002306B02A0300319F0

:1001B0006A02031CE32808306B02003003196A024C

:1001C0000318E3289E2120006C082100A1008F293C

:1001D00002302006031D1E2970302000E900F33094

:1001E000E8000130EC000A22A401A40AF330210047

:1001F0002302031C1029F8302302031803292000CE

:100200006A0A031D0F292100230A031D10297030DB

:100210002000E900FF30E8000A226A0A031DA40159

:100220002000240803198F29210021082000E8005C

:10023000210023082000E9003C228F2904302006F9

:10024000031D312922082000E90021002108200097

:10025000E8000130EC000A226A082100A300A40192

:100260008F2906302006031D372901008F2905300C

:10027000200603198F297208031D8D297030200074

:10028000E900F030E8000130EC000A226A08A6001C

:100290007030E900FC30E8000130EC000A226A0806

:1002A0002606031D8D296A0A03198D290230E900EB

:1002B000A030E800EC01F1010830690200300319B8

:1002C000680203186C290A226A08F1076B08F10713

:1002D000E80A0319E90A5C297030E900F130E80006

:1002E0000130EC000A226A087106031D8229710898

:1002F0000319822922000C101F303F00ED008231CB

:10030000A02A8D29F030E800FF30E9003C22F230CD

:100310002000E800FF30E9003C222000A501200079

:100320002508EA00A030E8000030E9002522FF306F

:100330002100A000F20122000C10AC284131200065

:10034000EC013100951115139518A42920006B08B4

:100350003100920020006A08310091001516151531

:100360006322310095160030FF3F20006B083100FA

:10037000920020006A08310091007F3FFE00FF01DB

:10038000FE35FF0D200068087E07840069087F3D68

:100390008500003F31009300013F940013082000C6

:1003A000EC07310014082000EC077F3F1F3A031DC3

:1003B000DB293100951263222000EA0A0319EB0AB7

:1003C0007F3F013EFF3F7F3FFF0020307F02031C45

:1003D000B529EC13310015117F3108004131FF3F81

:1003E0007F3F0319082AFF302000A000FF30A10042

:1003F0000130A0020030A13B200A031DF829210A88

:10040000031DF8297F3FF40001307402FF3FF029FB

:100410007F31080020006C0C3100031C15130318F9

:10042000151720006908310092002000680831008B

:100430009100151400000000310014082000EB00AA

:10044000310013082000EA00080020006A080319A0

:10045000382A6808840069088500000823009A008B

:100460002000E80A0319E90AEA03111A252A352AA5

:1004700023009E180800382A31009511151715150C

:100480007030920020006808310091002000690857

:10049000310093006322310095184B2A1511080092

:1004A000413454342B344E3441344D344534433488

:1004B00044340034413454342B34423441345534C0

:1004C000443437340034553031009600AA30960059

:1004D0009514000000000800413454342B3450348B

:1004E00049344E340034640080010131890B742A90

:1004F0000034FF00FF00FF00FF00FF00FF00FF00CF

:10050000FF00FF00FF00FF00FF00FF00FF00FF00F3

:10051000FF00FF00FF00FF00FF00FF00FF00FF00E3

:10052000FF00FF00FF00FF00FF00FF00FF00FF00D3

:10053000FF00FF00FF00FF00FF00FF00FF00FF00C3

:10054000C52AFF00FF00FF007E14823120007F08D3

:10055000F300901EB22A0A30F20072082100E40073

:1005600020009012911EB62A1326BC2A111EBC2A06

:100570002100111EBC2A3A26200091189110111B4F

:1005800011137308FF007E100900C62ACD27DE0074

:100590005330840087308500D630860000308700D5

:1005A0001230BB27FA0120308400003085002D3046

:1005B000C127A0308400003085003630C1277E106E

:1005C0002000C72F2000D801D701D601300A031D13

:1005D000EB2A3508EC2A3008D1005108D6003F2715

:1005E000003A0319512CFF302000D1005108BD0002

:1005F000062BEA262000D10058083D3E86008701E0

:10060000510881000130D1005108D8073F27003A36

:1006100003190F2B103020005802031CF92A053053

:1006200020003D06031D342B0830D1005108BD00C9

:100630003E08D1005108DE0077272000D100510884

:10064000BE003E08D1005108DE063508D100510831

:10065000DE06AA012C08023ED1005108AC0005308C

:10066000D1005108D700442C10305806031D442CEB

:100670002808031D442C0F30D1005108F4005E08F7

:10068000D2005208F5003E3002270F302000D10082

:100690005108F400F5015608D2005208F6003D302A

:1006A000E525003A0319362C0C3020003D06031DC9

:1006B0001C2C1030D1005108D700300A031DBD2B6F

:1006C000F430D1005108D4000430D1005108D300D7

:1006D0000330D1005108D500F83054020318942B90

:1006E00055083D3E860087010108D1005108F400FD

:1006F00054088527200055083D3E860087010108E3

:10070000D10053082D3E8600870151088100013039

:10071000D1005108D3070130D1005108D50701306D

:10072000D1005108D4076C2B77272000D100510845

:10073000B0003008D1005108F400F33085272000C4

:100740003008D1005108BF003508D1005108C4005D

:100750003608D1005108C5003708D1005108C6003D

:100760003808D1005108C7003908D1005108C80025

:100770005130D1005108C900CF2B3030D100510881

:10078000F4000A30D2005208F5003F305E26003AED

:10079000031D1A2C513020004906031DD82B3B089D

:1007A000D1005108CA002F08D1005108CB001C2CE1

:1007B00007304906031DE42BFF30D1005108F40037

:1007C000F030852701001C2C043020004906031D51

:1007D000F52B4B08F5004A08F400F601F60A2B2722

:1007E00074082000D1005108172C11304906031D50

:1007F0000D2C4A080319042C2C080A3ED10051087C

:10080000AC0022000C151C2C20002C08023ED1004C

:100810005108AC0022000C111C2C1230200049069B

:10082000031D1B2C003022000C1901302000CA00CF

:10083000CB011C2C2000D7010F302000D100510823

:10084000F400F501F50A5608D2005208F6003D30D2

:10085000E5252000A7010F30D1005108F4005E0803

:10086000D2005208F5003E300227442C013020000F

:10087000D1005108A70706302702031C442CA7010A

:100880001E30D1005108A800200057080319512C30

:100890003D30F4000030F5005708D1005108F60053

:1008A000B425003020008C1A0130D90029085906DF

:1008B0000319662C590803195F2C0130602C023093

:1008C0007E2620005908D1005108A900652708009C

:1008D00001302100E2070030E33DFE3020002B0212

:1008E0000318762C0130F8007808AB07FE302A0296

:1008F00003187E2C0130F8007808AA072A0A031D85

:10090000842CCD01CE018B2C2A08F800F90178083F

:10091000CD007908CE004D08F8007808D1000F30DE

:100920005106031D982CFF30F8007808AA00DE0954

:10093000280803199D2C0130A8022B0A031DA32CA3

:10094000CF01D001AA2C2B08F800F9017808CF00BC

:100950007908D0004F08F8007808D1000A30510219

:10096000031CBC2C103051020318BC2C2C08043E74

:10097000F8007808AC00080014305106031D080088

:10098000AA30F4008730F5000930F8007808F60046

:10099000B4253530F4000030F5000430F800780854

:1009A000F600B42520002C080A3EF8007808AC00B8

:1009B00008002E2D2000AB012C08023EF80078081C

:1009C000AC00080020002B0A031DE92CDB01DC0130

:1009D000F02C2B08F800F9017808DB007908DC001E

:1009E0005B08F8007808DD00FF30F8007808AB00FD

:1009F00010305D020318032D0A305D02031C08004D

:100A000004307E260800B430F4008730F50006304C

:100A1000F8007808F600B4253530F4000030F50011

:100A20000430F8007808F600B42520002C080A3EAF

:100A3000F8007808AC00080020002C08283EF800D8

:100A40007808AC00FF30F8007808F400F330852710

:100A5000FF30F80078082000B00008009C26013A1A

:100A60000319E22C033A0319DA2C063A03191C2D58

:100A7000392D0800210064080319752DFA0104308E

:100A80007A0203186C2D7A08E43E860087010A304A

:100A90000102031C632D7A35D63E86008701413F53

:100AA0008A00403F0A00853101302000DA007A08D0

:100AB000013EE43E860087015A0881077A08E43E39

:100AC00086008701810101302000DA005A08FA0708

:100AD00004307A02031C432D01302100DE07003070

:100AE000DF3D0030E03D0030E13DD9241727003ADA

:100AF000031D762D6300000000003A2D0310200036

:100B00008C1E0314003003180130A900FF30F700D9

:100B10007708AB00FF30F7007708AA00F030CF006D

:100B20007030D000CD01CE01713050020030031979

:100B30004F02031808005008F5004F08F400F601B2

:100B4000F60A2B277408F70020004D082D3E86007A

:100B50008701770881000130CD070030CE3D01309C

:100B6000CF070030D03D942D8B1376080319E12D6B

:100B700074088400750885000008F7002100380813

:100B8000A03E86008701770881000130F40700301D

:100B9000F53D0130F60217303802031CD12DB801A3

:100BA000D52D0130F7007708B80739083806031D3E

:100BB000B52DBA01BA0A11168B173A080319B42DCC

:100BC000DD2D210011168B1708002000DD00DC014F

:100BD000DB0174080319FA2D5D08860087010108FE

:100BE000F7007708DC070130F7007708DD070130F0

:100BF000F402E92D75080319052E5C087606F70046

:100C00005D0886008701770881005D0886008701FE

:100C100076085C06F70077080106031D112EDB013C

:100C2000DB0A5B08080023001908F0007008F100D7

:100C3000210055080319202E5408530603190800F3

:100C4000D5017108F0005308BB3E8600870170088B

:100C5000810017305302031C2F2ED301332E013095

:100C6000F0007008D30754085306031D0800D5018F

:100C7000D50A080021003908380603193A08031973

:100C80005C2E3908A03E86008701010823009A00E7

:100C9000173021003902031C4F2EB901532E0130A9

:100CA000F0007008B90739083806031911123A081C

:100CB00003190800BA01080011120800F800F70132

:100CC000750803197C2E7408860087017808840053

:100CD0008501000801060319712EF701F70AF501D5

:100CE000F50A0130F5020130F6007608F40701300C

:100CF000F6007608F807602E77080800F500200057

:100D00002608031D08007508F4002008223E86000E

:100D1000870174088100033020020318942E0130EB

:100D2000F4007408A007952EA00121082006031DD9

:100D30000800A601A60A0800F501200021082006E7

:100D4000031926080319B72E2108223E86008701C1

:100D50000108F4007408F500033021020318B52ED1

:100D60000130F4007408A107B62EA101A601750890

:100D700008000130F8000030F900CE279327CA2779

:100D80000130F8070030F93D78037904031DC02EC7

:100D90008030320098009F277E25200097170B1780

:100DA0008B1708008B130830D63E86008701403F22

:100DB0002000CD00413FCE00423FCF00433FD00056

:100DC0008B175008F7004F08F6004E08F5004D0845

:100DD000F4000800F5018B1321005408BB3E860087

:100DE00087010108F4007408F50017305402031C51

:100DF000FB2ED401FF2E0130F4007408D4078B17AA

:100E000075080800F8007408031908000130F4029E

:100E10007508F60074087807F700770886008701E0

:100E2000760881067408F6007608F506032F8B1302

:100E30002100380839020318222F3803FF3A3907F6

:100E4000183E252F3803FF3A3907F4007408F500DF

:100E50008B17750808006C30860000308700760814

:100E6000810075082000E9007408E80082310A2238

:100E7000873120006B08F5006A08F40008008B1326

:100E8000210054085302031C492F5403FF3A53070F

:100E90004D2F5403FF3A5307183EF4007408F50031

:100EA0008B1775080800D0340734CF340734E23488

:100EB0000234683404340034003400340034003424

:100EC0000034003400340034003420002C080319AE

:100ED00008000130AC0222000C080139F400013096

:100EE000F4060C087406FE3974068C000800D2263D

:100EF0007408F8007808F900790A031D832FAA30D6

:100F0000F8007808F90079080800F6007608F5007E

:100F100075082000E8007408E9008B1382313C2238

:100F200087318B170800283021008C0023008C01AA

:100F3000393024008C00383022008C00080020005A

:100F400098121813981795011F30960090122100DF

:100F500090160800413454342B344E3441344D340F

:100F60004534433444340034413454342B34503405

:100F700049344E340034FE0012001E00FE0BBC2F1C

:100F80000034640080010131890BC22F0034B9267E

:100F90003A25C52A210091160800FF3408000800F0

:100FA0000800FF00FF00FF00FF00FF00FF00FF0040

:100FB000FF00FF00FF00FF00FF00FF00FF00FF0039

:100FC000FF00FF00FF00FF00FF00FF00FF00FF0029

:100FD000FF00FF00FF00FF00FF00FF00FF00FF0019

:100FE000FF00FF00FF00FF00FF00FF00FF00FF0009

:100FF000FF00FF00FF00FF00FF00FF00FF00FF00F9

:020000040001F9

:08000E00FCFF52FFFFDFFFFFC2

:04E1E0000134f734DB
:02E1E400033402

:08E1F00031343234333434348D
:02E1F8000134F0
:02E1FC000134EC
:02E1FE000134EA

:00000001FF

