:100000000F28FF00FF00FF008031C3308600203042
:10001000870020007508F3008231A42A0900102807
:10002000F001F101F20120308400003085000B3036
:100030007D22A03084000030850045307D222000E4
:10004000953086002030870025288F3032009905B2
:10005000F03099051B1E2A28283021008C0023002F
:100060008C01393024008C0003303C00A400143093
:100070003D009400243023009E009F1190309D008D
:100080003F21223023009B0051287208A03E8400AB
:100090008501230019088000F20A20009112A201B4
:1000A000A3012000911A4528A20A0319A30A220AD3
:1000B000031D5128230A031D512822000C1405306A
:1000C0002000A50021002003031D8D28FF30200003
:1000D000EC0043307206031D88282100220820000E
:1000E000EB00210021082000EA00A330E8000030E6
:1000F000E90002306B02A03003196A02031C882851
:1001000008306B02003003196A0203188828A821FE
:1001100020006C082100A100302902302006031DB8
:10012000BF2870302000E900F330E8000130EC0017
:100130001422A401A40AF33021002102031CB128D7
:10014000F83021020318A82820006A0A031DB028ED
:1001500070302000E900FF30E80014226A0A031D15
:10016000A4012000240803193029210021082000BF
:10017000E800210023082000E9004622302904304D
:100180002006031DD22822082000E90021002108B2
:100190002000E8000130EC0014226A082100A300CE
:1001A000A401302906302006031DD828010030297B
:1001B00005302006031930297208031D2E297030DE
:1001C0002000E900F030E8000130EC0014226A0859
:1001D000A6007030E900FC30E8000130EC00142289
:1001E0006A082606031D2E296A0A03192E290230E1
:1001F000E900A030E800EC01F101083069020030AC
:100200000319680203180D2914226A08F1076B0804
:10021000F107E80A0319E90AFD287030E900F13016
:10022000E8000130EC0014226A087106031D23293E
:1002300071080319232922000C101F303F00ED0024
:100240008231A02A2E29F030E800FF30E900462252
:10025000F2302000E800FF30E90046222000A5012E
:1002600020002508EA00A030E8000030E9002F2235
:10027000FF302100A000F20122000C1051282000C4
:100280008C1A080022000C103C30F82120008C1A37
:10029000080022000C1420008C1E4B2922000C1098
:1002A000CF3023009B0008302000EA008230E900B4
:1002B0006430E8002F220A30F82170302000E90075
:1002C000F830E8000130EC000430700203187429A3
:1002D00014227008273E840085016A088000F00A15
:1002E000E80A0319E90A6429223023009B00093037
:1002F0002000EA008230E9005A30E8002F22043062
:100300002000EA002730E8000030E9002F220A3000
:10031000F82106302000EA008230E9007630E8005B
:100320002F2204302000EA002730E8000030E900E6
:100330002F22F0302000E800FF30E900F83068029A
:100340000318A62946222000E80A9E290100080079
:1003500041312000EC013100951115139518AE299B
:1003600020006B083100920020006A0831009100E3
:10037000151615156D22310095160030FF3F20002F
:100380006B083100920020006A08310091007F3F25
:10039000FE00FF01FE35FF0D200068087E07840087
:1003A00069087F3D8500003F31009300013F9400C4
:1003B00013082000EC07310014082000EC077F3FF1
:1003C0001F3A031DE529310095126D222000EA0A2B
:1003D0000319EB0A7F3F013EFF3F7F3FFF002030C4
:1003E0007F02031CBF29EC13310015117F31080077
:1003F0004131FF3F7F3F0319122AFF302000A00048
:10040000FF30A1000130A0020030A13B200A031DF3
:10041000022A210A031D022A7F3FF40001307402E0
:10042000FF3FFA297F31080020006C0C3100031CCB
:1004300015130318151720006908310092002000D9
:100440006808310091001514000000003100140804
:100450002000EB00310013082000EA000800200013
:100460006A080319422A68088400690885000008A0
:1004700023009A002000E80A0319E90AEA03111A86
:100480002F2A3F2A23009E180800422A3100951186
:100490001517151570309200200068083100910082
:1004A00020006908310093006D2231009518552A0B
:1004B00015110800413454342B344E3441344D343A
:1004C0004534433444340034413454342B344234BE
:1004D00041345534443437340034553031009600BB
:1004E000AA309600951400000000080041345434EE
:1004F0002B34503449344E340034640080010131CF
:10050000890B7E2A0034FF00FF00FF00FF00FF0080
:10051000FF00FF00FF00FF00FF00FF00FF00FF00E3
:10052000FF00FF00FF00FF00FF00FF00FF00FF00D3
:10053000FF00FF00FF00FF00FF00FF00FF00FF00C3
:10054000C92AFF00FF00FF007E14823120007F08CF
:10055000F300901EB22A0A30F20072082100DF0078
:1005600020009012911EBA2A0130F2007208AA00EF
:100570003B26C02A111EC02A2100111EC02A622655
:10058000200091189110111B11137308FF007E10A9
:100590000900CA2ACC27E000853084008730850016
:1005A000D6308600003087000D30BA27FA01FB01F3
:1005B000FC0120308400003085003330C027A0309B
:1005C0008400003085003630C0277E102000C62F02
:1005D0002000DA01D901DB01D5018B132A080319A8
:1005E000FD2A2A08013ED3005308AA0003302A023C
:1005F000031CFD2AAA01D501D50A8B17550803193A
:1006000008003608D3005308DB005B0A031D0C2BDF
:100610003B08D3005308DB00FF30D3005308C3006E
:100620001E2BD8262000D3005A08433E860087019F
:10063000530881000130D3005308DA074327003AFA
:100640000319272B103020005A02031C112B0530F0
:1006500020004306031D4C2B0830D3005308C30071
:100660004408D3005308E00069272000D300530852
:10067000C4004408D3005308E0063B08D3005308E5
:10068000E006A7012908023ED3005308A90005305F
:10069000D3005308D900702C10305A06031D702C5B
:1006A0002608031D702C0F30D3005308F400600897
:1006B000D4005408F500443006270F302000D30042
:1006C0005308F400F5015B08D4005408F6004330E9
:1006D0000D26003A0319622C0C3020004306031D3E
:1006E000482C1030D3005308D900360A031DD52BEF
:1006F000F430D3005308D7000C30D3005308D60091
:100700000330D3005308D800F83057020318AC2B3D
:100710005808433E860087010108D3005308F400BF
:100720005708772720005808433E860087010108B4
:10073000D30056082B3E8600870153088100013004
:10074000D3005308D6070130D3005308D80701302F
:10075000D3005308D707842B69272000D300530800
:10076000B6003608D3005308F400F3307727200092
:100770003608D3005308C5003B08D3005308CA000D
:100780003C08D3005308CB003D08D3005308CC00ED
:100790003E08D3005308CD003F08D3005308CE00D5
:1007A0005130D3005308CF00E72B3730D300530824
:1007B000F4000930D4005408F50046308626003A8B
:1007C000031D462C513020004F06031DED2B410820
:1007D000D3005308D0003508002C52304F06031DBB
:1007E000F72B3108D3005308D0003208002C5330C7
:1007F0004F06031D042C5008203E86008701010887
:10080000D3005308D100482C07304F06031D102C8D
:10081000FF30D3005308F400F03077270100482C54
:10082000043020004F06031D212C5108F50050080C
:10083000F400F601F60A2F2774082000D3005308AD
:10084000432C11304F06031D392C50080319302C4E
:1008500029080A3ED3005308A90022000C15482C91
:1008600020002908023ED3005308A90022000C11E1
:10087000482C123020004F06031D472C0030220068
:100880000C1901302000D000D101482C2000D901E2
:100890000F302000D3005308F400F501F50A5B087F
:1008A000D4005408F60043300D262000A5010F3077
:1008B000D3005308F4006008D4005408F500443015
:1008C0000627702C01302000D3005308A5070630FE
:1008D0002502031C702CA5011E30D3005308A6006E
:1008E00020005908031908004330F4000030F500D7
:1008F0005908D3005308F600DC2508000130F80041
:1009000078082000A4073C302406031DA02CA40175
:100910000130F8007808A3073C302306031DA02C03
:10092000A3010130F8007808A20718302206031D41
:10093000A02CF0262000A2010130A0070030A13D2C
:10094000FE3028020318A82C0130F8007808A80708
:10095000FE3027020318B02C0130F8007808A707F2
:10096000270A031DB62CD301D401BD2C2708F8009B
:10097000F9017808D3007908D4005308F800780802
:10098000D7000F305706031DCA2CFF30F800780837
:10099000A700E00926080319CF2C0130A602280A77
:1009A000031DD52CD501D601DC2C2808F800F9014F
:1009B0007808D5007908D6005508F8007808D700DF
:1009C0000A305702031CEE2C103057020318EE2C8D
:1009D0002908043EF8007808A900080014305706DA
:1009E000031D0800A930F4008730F5000930F80035
:1009F0007808F600DC253B30F4000030F5000430C8
:100A0000F8007808F600DC25200029080A3EF800E6
:100A10007808A900080002307C06031D142D200070
:100A2000A8012908023E5D2D7C03031D602D2000D6
:100A3000280A031D1E2DDD01DE01252D2808F800E2
:100A4000F9017808DD007908DE005D08F800780813
:100A5000DF00FF30F8007808A80010305F020318AC
:100A6000482D0A305F02031C602D2908283EF8003B
:100A70007808A900FF30F8007808F400F3307727F1
:100A8000FF30F80078082000B60022000C11602D1D
:100A9000B330F4008730F5000630F8007808F6002F
:100AA000DC253B30F4000030F5000430F800780815
:100AB000F600DC25200029080A3EF8007808A90085
:100AC000FF30F8007808FC00080021005F080319D7
:100AD0009D2DFA0104307A020318972D7A08DF3E23
:100AE000860087010A300102031C8E2D7A35D63E1E
:100AF00086008701413F8A00403F0A00853101306E
:100B00002000DC007A08013EDF3E860087015C0899
:100B100081077A08DF3E86008701810101302000CD
:100B2000DC005C08FA0704307A02031C6E2D0130E9
:100B30002000DC005C082100DE070B251B27003AA3
:100B4000031D9E2D630000000000652D0310200092
:100B50008C1E0314003003180130FB00FF30F70037
:100B60007708A800FF30F7007708A700E830D50025
:100B70007030D600D301D401713056020030031911
:100B80005502031808005608F5005508F400F60150
:100B9000F60A2F277408F700200053082B3E860022
:100BA0008701770881000130D3070030D43D013040
:100BB000D5070030D63DBC2D8B1376080319092EBE
:100BC00074088400750885000008F70021003808C3
:100BD000A03E86008701770881000130F4070030CD
:100BE000F53D0130F60217303802031CF92DB8012B
:100BF000FD2D0130F7007708B80739083806031DC6
:100C0000DD2DBA01BA0A11168B173A080319DC2D2B
:100C1000052E210011168B1708002000DF00DE01D1
:100C2000DD0174080319222E5F0886008701010880
:100C3000F7007708DE070130F7007708DF0701309B
:100C4000F402112E750803192D2E5E087606F700A2
:100C50005F0886008701770881005F0886008701AA
:100C600076085E06F70077080106031D392EDD01C0
:100C7000DD0A5D08080023001908F0007008F10083
:100C8000210055080319482E54085306031908007B
:100C9000D5017108F0005308BB3E8600870170083B
:100CA000810017305302031C572ED3015B2E0130F5
:100CB000F0007008D30754085306031D0800D5013F
:100CC000D50A080021003908380603193A08031923
:100CD000842E3908A03E86008701010823009A006F
:100CE000173021003902031C772EB9017B2E013009
:100CF000F0007008B90739083806031911123A08CC
:100D000003190800BA01080011120800F800F701E1
:100D100075080319A42E74088600870178088400DA
:100D20008501000801060319992EF701F70AF5015C
:100D3000F50A0130F5020130F6007608F4070130BB
:100D4000F6007608F807882E770808000130F800CA
:100D50000030F900CD279227C9270130F80700306D
:100D6000F93D78037904031DAD2E803032009800E0
:100D70009E27A625200097170B178B170800003019
:100D800020008C1A0130F6007B0876060319D62E57
:100D900076080319CE2EFC01FC0AD22E0230F50093
:100DA0007508FC007608F5007508FB005727080059
:100DB000F5018B1321005408BB3E86008701010812
:100DC000F4007408F50017305402031CE92ED40116
:100DD000ED2E0130F4007408D4078B177508080055
:100DE0002000320A031908000130B1070030B23D7B
:100DF0003108F7007708F400EE307727200032083A
:100E0000F7007708F400EF3077270800F80074083F
:100E1000031908000130F4027508F6007408780719
:100E2000F700770886008701760881067408F600C7
:100E30007608F506072F8B132100380839020318AE
:100E4000262F3803FF3A3907183E292F3803FF3A77
:100E50003907F4007408F5008B17750808006C302A
:100E60008600003087007608810075082000E900C0
:100E70007408E80082311422873120006B08F500E5
:100E80006A08F40008008B13210054085302031C65
:100E90004D2F5403FF3A5307512F5403FF3A530782
:100EA000183EF4007408F5008B1775080800200040
:100EB0002908031908000130A90222000C08013991
:100EC000F4000130F4060C087406FE3974068C0038
:100ED000080021005E08F4007408F500750A031D7F
:100EE000752FAA30F4007408F50075080800F600A4
:100EF0007608F50075082000E8007408E9008B13F7
:100F00008231462287318B170800E8340234CE3410
:100F10000734BF3406347E340434003400340034E3
:100F200000340034283021008C0023008C0139303B
:100F300024008C00383022008C0008002000981219
:100F40001813981795011F309600901221009016E3
:100F50000800413454342B344E3441344D3445343C
:100F6000433444340034413454342B345034493401
:100F70004E340034FE0012001E00FE0BBB2F003466
:100F8000640080010131890BC12F0034A62665253C
:100F9000C92A210091160800FF3408000800FF004C
:100FA000FF00FF00FF00FF00FF00FF00FF00FF0049
:100FB000FF00FF00FF00FF00FF00FF00FF00FF0039
:100FC000FF00FF00FF00FF00FF00FF00FF00FF0029
:100FD000FF00FF00FF00FF00FF00FF00FF00FF0019
:100FE000FF00FF00FF00FF00FF00FF00FF00FF0009
:100FF000FF00FF00FF00FF00FF00FF00FF00FF00F9
:020000040001F9
:08000E00FCFF52FFFFDFFFFFC2
:04E1E0000134ac3426
:02E1E400033402
:02E1F8000134F0
:02E1FC000134EC
:00000001FF
