:100000000F28FF00FF00FF008031C3308600203042
:10001000870020007508F3008231A42A0900102807
:10002000F001F101F20120308400003085000B3036
:100030007322A030840000308500453073222000F8
:10004000953086002030870025288F3032009905B2
:10005000F03099051B1E2A28283021008C0023002F
:100060008C01393024008C0003303C00A400143093
:100070003D009400243023009E009F1190309D008D
:1000800020008C1A9C288C1E4328CF3023009B0014
:1000900008302000EA008230E9005A30E8002522CA
:1000A0000A30EE2170302000E900F830E80001301D
:1000B000EC0004307002031869280A227008273EF9
:1000C000840085016A088000F00AE80A0319E90A39
:1000D0005928223023009B0009302000EA0082309A
:1000E000E9005030E800252204302000EA002730E3
:1000F000E8000030E90025220A30EE210630200019
:10010000EA008230E9006C30E8002522043020004B
:10011000EA002730E8000030E9002522F030200016
:10012000E800FF30E900F830680203189B283C2201
:100130002000E80A93280100223023009B00AC280D
:100140007208A03E84008501230019088000F20A8D
:1001500020009112A201A3012000911AA028A20A56
:100160000319A30A220A031DAC28230A031DAC2885
:1001700022000C1405302000A50021002003031DDF
:10018000E828FF302000EC0043307206031DE3280E
:10019000210022082000EB00210021082000EA00B5
:1001A000A330E8000030E90002306B02A0300319F0
:1001B0006A02031CE32808306B02003003196A024C
:1001C0000318E3289E2120006C082100A1008F293C
:1001D00002302006031D1E2970302000E900F33094
:1001E000E8000130EC000A22A401A40AF330210047
:1001F0002302031C1029F8302302031803292000CE
:100200006A0A031D0F292100230A031D10297030DB
:100210002000E900FF30E8000A226A0A031DA40159
:100220002000240803198F29210021082000E8005C
:10023000210023082000E9003C228F2904302006F9
:10024000031D312922082000E90021002108200097
:10025000E8000130EC000A226A082100A300A40192
:100260008F2906302006031D372901008F2905300C
:10027000200603198F297208031D8D297030200074
:10028000E900F030E8000130EC000A226A08A6001C
:100290007030E900FC30E8000130EC000A226A0806
:1002A0002606031D8D296A0A03198D290230E900EB
:1002B000A030E800EC01F1010830690200300319B8
:1002C000680203186C290A226A08F1076B08F10713
:1002D000E80A0319E90A5C297030E900F130E80006
:1002E0000130EC000A226A087106031D8229710898
:1002F0000319822922000C101F303F00ED008231CB
:10030000A02A8D29F030E800FF30E9003C22F230CD
:100310002000E800FF30E9003C222000A501200079
:100320002508EA00A030E8000030E9002522FF306F
:100330002100A000F20122000C10AC284131200065
:10034000EC013100951115139518A42920006B08B4
:100350003100920020006A08310091001516151531
:100360006322310095160030FF3F20006B083100FA
:10037000920020006A08310091007F3FFE00FF01DB
:10038000FE35FF0D200068087E07840069087F3D68
:100390008500003F31009300013F940013082000C6
:1003A000EC07310014082000EC077F3F1F3A031DC3
:1003B000DB293100951263222000EA0A0319EB0AB7
:1003C0007F3F013EFF3F7F3FFF0020307F02031C45
:1003D000B529EC13310015117F3108004131FF3F81
:1003E0007F3F0319082AFF302000A000FF30A10042
:1003F0000130A0020030A13B200A031DF829210A88
:10040000031DF8297F3FF40001307402FF3FF029FB
:100410007F31080020006C0C3100031C15130318F9
:10042000151720006908310092002000680831008B
:100430009100151400000000310014082000EB00AA
:10044000310013082000EA00080020006A080319A0
:10045000382A6808840069088500000823009A008B
:100460002000E80A0319E90AEA03111A252A352AA5
:1004700023009E180800382A31009511151715150C
:100480007030920020006808310091002000690857
:10049000310093006322310095184B2A1511080092
:1004A000413454342B344E3441344D344534433488
:1004B00044340034413454342B34423441345534C0
:1004C000443437340034553031009600AA30960059
:1004D0009514000000000800413454342B3450348B
:1004E00049344E340034640080010131890B742A90
:1004F0000034FF00FF00FF00FF00FF00FF00FF00CF
:10054000C52AFF00FF00FF007E14823120007F08D3
:10055000F300901EB22A0A30F20072082100E40073
:1005600020009012911EB62AC525BC2A111EBC2A55
:100570002100111EBC2AF225200091189110111B98
:1005800011137308FF007E100900C62A7427DA00D1
:100590000B30840087308500D6308600003087001D
:1005A00012306227FA01FB01FC0120308400003088
:1005B000850029306827A03084000030850036305F
:1005C00068277E1020006E2F2000D401D301D201B5
:1005D0002C0A031DED2A3108EE2A2C08CD004D0807
:1005E000D200F726003A03193D2CFF302000CD0041
:1005F0004D08B900082BA2262000CD005408393E32
:10060000860087014D0881000130CD004D08D407D8
:10061000F726003A0319112B103020005402031C56
:10062000FB2A053020003906031D362B0830CD008B
:100630004D08B9003A08CD004D08DA002F272000F8
:10064000CD004D08BA003A08CD004D08DA06310851
:10065000CD004D08DA06FB012808023ECD004D080A
:10066000A8000530CD004D08D300332C10305406BF
:10067000031D332C0F30CD004D08F4005A08CE0076
:100680004E08F5003A30BA260F302000CD004D0854
:10069000F400F5015208CE004E08F60039309725D7
:1006A000003A0319332C0C3020003906031D1B2C93
:1006B0001030CD004D08D3002C0A031DBC2BF430A4
:1006C000CD004D08D0000430CD004D08CF000330E0
:1006D000CD004D08D100F83050020318932B51087B
:1006E000393E860087010108CD004D08F40050080E
:1006F0003D2720005108393E860087010108CD00C2
:100700004F08293E860087014D0881000130CD0049
:100710004D08CF070130CD004D08D1070130CD0085
:100720004D08D0076B2B2F272000CD004D08AC00C3
:100730002C08CD004D08F400F3303D2720002C0894
:10074000CD004D08BB003108CD004D08C000320877
:10075000CD004D08C1003308CD004D08C20034085B
:10076000CD004D08C3003508CD004D08C400513000
:10077000CD004D08C500CE2B2C30CD004D08F40027
:100780000A30CE004E08F5003B301626003A031D15
:10079000192C513020004506031DD72B3708CD00FA
:1007A0004D08C6002B08CD004D08C7001B2C073094
:1007B0004506031DE32BFF30CD004D08F400F0305B
:1007C0003D2701001B2C043020004506031DF42B9F
:1007D0004708F5004608F400F601F60AE326740817
:1007E0002000CD004D08162C11304506031D0C2CA1
:1007F00046080319032C28080A3ECD004D08A8001E
:1008000022000C151B2C20002808023ECD004D08AC
:10081000A80022000C111B2C123020004506031DDD
:100820001A2C003022000C1901302000C600C7012C
:100830001B2C2000D3010F302000CD004D08F40008
:10084000F501F50A5208CE004E08F600393097251A
:100850000F302000CD004D08F4005A08CE004E089D
:10086000F5003A30BA262000530803193D2C5308EE
:10087000CD004D08F40039306625003020008C1A78
:100880000130D500270855060319522C55080319C5
:100890004B2C01304C2C0230362620005508CD0060
:1008A0004D08A7001D27080001302100E207003095
:1008B000E33DFE307C020318612C0130F400740823
:1008C000FC07FE307B020318692C0130F400740829
:1008D000FB077B0A031D702C2000C901CA01782C7C
:1008E0007B08F400F50174082000C9007508CA00EF
:1008F0004908F4007408CD000F304D06031D852C07
:10090000FF30F4007408FB00DA097C0A031D8B2C0D
:10091000CB01CC01922C7C08F400F5017408CB00CB
:100920007508CC004B08F4007408CD000A304D0265
:10093000031C080010304D02031808002808043E6C
:10094000F4007408A8000800E02CFC01200028082E
:10095000023EF7007708A80008007C0A031DB42CAB
:100960002000D701D801BC2C7C08F700F8017708DB
:100970002000D7007808D8005708F7007708D9007A
:10098000FF30F7007708FC00103059020318080008
:100990000A305902031C0800043036260800FF30D4
:1009A000F7007708F400F3303D27FF30F7007708B1
:1009B0002000AC002808283EF7007708A8000800AF
:1009C0005426013A0319AD2C033A0319A52C063A13
:1009D0000319CF2CEB2C0800210064080319272DE4
:1009E000FA0104307A0203181E2D7A08E43E8600CC
:1009F00087010A300102031C152D7A35D63E860088
:100A00008701413F8A00403F0A00853101302000C4
:100A1000D6007A08013EE43E860087015608810729
:100A20007A08E43E86008701810101302000D6006B
:100A30005608FA0704307A02031CF52C0130210015
:100A4000DE070030DF3D0030E03D0030E13DA42412
:100A5000CF26003A031D282D630000000000EC2C77
:100A6000031020008C1E0314003003180130A7006F
:100A7000FF30F7007708FC00FF30F7007708FB0035
:100A8000F030CB007030CC00C901CA0171304C028B
:100A9000003003194B02031808004C08F5004B08FE
:100AA000F400F601F60AE3267408F700200049086E
:100AB000293E86008701770881000130C907003090
:100AC000CA3D0130CB070030CC3D462DF6008B13DC
:100AD00074080319932D7608860087010108F50034
:100AE00021003808A03E860087017508810001308A
:100AF000F5007508F6070130F40217303802031CC0
:100B0000832DB801872D0130F5007508B807390825
:100B10003806031D682DBA01BA0A11168B173A0858
:100B20000319672D8F2D210011168B170800200047
:100B3000D900D801D70174080319AC2D59088600D3
:100B400087010108F7007708D8070130F700770818
:100B5000D9070130F4029B2D75080319B72D5808E9
:100B60007606F70059088600870177088100590842
:100B70008600870176085806F70077080106031DEE
:100B8000C32DD701D70A5708080023001908F00021
:100B90007008F10020002808023EF0007008A8004C
:100BA000210055080319D82D5408530603190800CD
:100BB000D5017108F0005308BB3E8600870170081C
:100BC000810017305302031CE72DD301EB2D0130B8
:100BD000F0007008D30754085306031D0800D50120
:100BE000D50A080021003908380603193A08031904
:100BF000142E3908A03E86008701010823009A00C0
:100C0000173021003902031C072EB9010B2E0130C9
:100C1000F0007008B90739083806031911123A08AC
:100C200003190800BA01080011120800F800F701C2
:100C300075080319342E740886008701780884002B
:100C40008501000801060319292EF701F70AF501AD
:100C5000F50A0130F5020130F6007608F40701309C
:100C6000F6007608F807182E77080800F50020002F
:100C70002608031D08007508F4002008223E86009F
:100C80008701740881000330200203184C2E0130C4
:100C9000F4007408A0074D2EA00121082006031DB2
:100CA0000800A601A60A0800F50120002108200678
:100CB0000319260803196F2E2108223E860087019A
:100CC0000108F4007408F5000330210203186D2EAA
:100CD0000130F4007408A1076E2EA101A601750869
:100CE00008000130F8000030F90075274B27712704
:100CF0000130F8070030F93D78037904031D782EA0
:100D000080303200980057273025200097170B17A6
:100D10008B1708008B130830D63E86008701403FB2
:100D20002000C900413FCA00423FCB00433FCC00F6
:100D30008B174C08F7004B08F6004A08F5004908E5
:100D4000F4000800F5018B1321005408BB3E860017
:100D500087010108F4007408F50017305402031CE1
:100D6000B32ED401B72E0130F4007408D4078B17CA
:100D700075080800F8007408031908000130F4022F
:100D80007508F60074087807F70077088600870171
:100D9000760881067408F6007608F506BB2E8B13DC
:100DA0002100380839020318DA2E3803FF3A3907D0
:100DB000183EDD2E3803FF3A3907F4007408F500B9
:100DC0008B17750808006C308600003087007608A5
:100DD000810075082000E9007408E80082310A22C9
:100DE000863120006B08F5006A08F40008008B13B8
:100DF000210054085302031C012F5403FF3A5307E8
:100E0000052F5403FF3A5307183EF4007408F50009
:100E10008B17750808007734073476340734E434C8
:100E200002345434043400340034003400340034C8
:100E30000034003400340034003420002808031942
:100E400008000130A80222000C080139F40001302A
:100E5000F4060C087406FE3974068C0008008A2615
:100E60007408F8007808F900790A031D3B2FAA30AE
:100E7000F8007808F90079080800F6007608F5000F
:100E800075082000E8007408E9008B1382313C22C9
:100E900087318B170800283021008C0023008C013B
:100EA000393024008C00383022008C0008002000EB
:100EB00098121813981795011F3096009012210070
:100EC00090160800FE0012001E00FE0B632F003477
:100ED000640080010131890B692F00347126EC24F4
:100EE000C52A210091160800FF34080008000800F8
:100EF000FF00FF00FF00FF00FF00FF00FF00FF00FA
:100F0000FF00FF00FF00FF00FF00FF00FF00FF00E9
:100F1000FF00FF00FF00FF00FF00FF00FF00FF00D9
:100F2000FF00FF00FF00FF00FF00FF00FF00FF00C9
:100F3000FF00FF00FF00FF00FF00FF00FF00FF00B9
:100F4000FF00FF00FF00FF00FF00FF00FF00FF00A9
:100F5000FF00FF00FF00FF00FF00FF00FF00FF0099
:100F6000FF00FF00FF00FF00FF00FF00FF00FF0089
:100F7000FF00FF00FF00FF00FF00FF00FF00FF0079
:100F8000FF00FF00FF00FF00FF00FF00FF00FF0069
:100F9000FF00FF00FF00FF00FF00FF00FF00FF0059
:100FA000FF00FF00FF00FF00FF00FF00FF00FF0049
:100FB000FF00FF00FF00FF00FF00FF00FF00FF0039
:100FC000FF00FF00FF00FF00FF00FF00FF00FF0029
:100FD000FF00FF00FF00FF00FF00FF00FF00FF0019
:100FE000FF00FF00FF00FF00FF00FF00FF00FF0009
:100FF000FF00FF00FF00FF00FF00FF00FF00FF00F9
:020000040001F9
:08000E00FCFF52FFFFDFFFFFC2
:02E1E400033402
:0AE1F0003534363437343834013446
:04E1FC0001340134b7
:00000001FF
