:100000000F28FF00FF00FF008031C3308600203042

:10001000870020007508F3008231A42A0900102807

:10002000F001F101F20120308400003085000B3036

:100030006F22A03084000030850045306F22200000

:10004000953086002030870025288F3032009905B2

:10005000F03099051B1E2A28283021008C0023002F

:100060008C01393024008C0003303C00A400143093

:100070003D009400243023009E009F1190309D008D

:1000800020008C1A9C288C1E4328CF3023009B0014

:1000900008302000EA008230E9005630E8002122D2

:1000A0000A30EA2170302000E900F830E800013021

:1000B000EC00043070020318692806227008273EFD

:1000C000840085016A088000F00AE80A0319E90A39

:1000D0005928223023009B0009302000EA0082309A

:1000E000E9004C30E800212204302000EA002730EB

:1000F000E8000030E90021220A30EA210630200021

:10010000EA008230E9006830E80021220430200053

:10011000EA002730E8000030E9002122F03020001A

:10012000E800FF30E900F830680203189B28382205

:100130002000E80A93280100223023009B00AC280D

:100140007208A03E84008501230019088000F20A8D

:1001500020009112A201A3012000911AA028A20A56

:100160000319A30A220A031DAC28230A031DAC2885

:1001700022000C1405302000A50021002003031DDF

:10018000E828FF302000EC0043307206031DE3280E

:10019000210022082000EB00210021082000EA00B5

:1001A000A330E8000030E90002306B02A0300319F0

:1001B0006A02031CE32808306B02003003196A024C

:1001C0000318E3289A2120006C082100A1008B2944

:1001D00002302006031D1A2970302000E900F33098

:1001E000E8000130EC000622A401A40AF33021004B

:1001F0002102031C0C29F8302102031803292000D6

:100200006A0A031D0B2970302000E900FF30E80066

:1002100006226A0A031DA4012000240803198B2961

:10022000210021082000E800210023082000E90027

:1002300038228B2904302006031D2D292208200096

:10024000E900210021082000E8000130EC0006222E

:100250006A082100A300A4018B2906302006031D93

:10026000332901008B290530200603198B297208D8

:10027000031D892970302000E900F030E8000130CA

:10028000EC0006226A08A6007030E900FC30E800A5

:100290000130EC0006226A082606031D89296A0A35

:1002A000031989290230E900A030E800EC01F101CE

:1002B0000830690200300319680203186829062211

:1002C0006A08F1076B08F107E80A0319E90A5829D7

:1002D0007030E900F130E8000130EC0006226A08D5

:1002E0007106031D7E29710803197E2922000C1056

:1002F0001F303F00ED008231A02A8929F030E8004C

:10030000FF30E9003822F2302000E800FF30E90039

:1003100038222000A50120002508EA00A030E800CE

:100320000030E9002122FF302100A000F20122006C

:100330000C10AC2841312000EC013100951115134F

:100340009518A02920006B083100920020006A084F

:1003500031009100151615155F22310095160030F9

:10036000FF3F20006B083100920020006A08310036

:1003700091007F3FFE00FF01FE35FF0D2000680861

:100380007E07840069087F3D8500003F31009300AF

:10039000013F940013082000EC07310014082000EE

:1003A000EC077F3F1F3A031DD729310095125F22CA

:1003B0002000EA0A0319EB0A7F3F013EFF3F7F3F1F

:1003C000FF0020307F02031CB129EC13310015110E

:1003D0007F3108004131FF3F7F3F0319042AFF307E

:1003E0002000A000FF30A1000130A0020030A13B9E

:1003F000200A031DF429210A031DF4297F3FF4007C

:1004000001307402FF3FEC297F31080020006C0CA2

:100410003100031C1513031815172000690831005B

:1004200092002000680831009100151400000000BF

:10043000310014082000EB00310013082000EA000E

:10044000080020006A080319342A68088400690833

:100450008500000823009A002000E80A0319E90A31

:10046000EA03111A212A312A23009E180800342A8F

:10047000310095111517151570309200200068088D

:100480003100910020006908310093005F223100A3

:100490009518472A15110800413454342B344E3432

:1004A00041344D34453443344434003441345434BD

:1004B0002B344234413455344434373400345530CD

:1004C00031009600AA309600951400000000080044

:1004D000413454342B34503449344E3400346400A5

:1004E00080010131890B702A0034FF00FF00FF00FA

:1004F000FF00FF00FF00FF00FF00FF00FF00FF0004

:10050000FF00FF00FF00FF00FF00FF00FF00FF00F3

:10051000FF00FF00FF00FF00FF00FF00FF00FF00E3

:10052000FF00FF00FF00FF00FF00FF00FF00FF00D3

:10053000FF00FF00FF00FF00FF00FF00FF00FF00C3

:10054000C52AFF00FF00FF007E14823120007F08D3

:10055000F300901EB22A0A30F20072082100DF0078

:1005600020009012911EB62A3C26BC2A111EBC2ADD

:100570002100111EBC2A6326200091189110111B26

:1005800011137308FF007E100900C62AB427E0008B

:100590006D30840087308500D630860000308700BB

:1005A0000D30A227FA01FB012030840000308500C5

:1005B0003330A827A0308400003085003630A827CB

:1005C0007E102000AE2F2000D901D801DA013608B4

:1005D000D3005308DA005A0A031DF22A3B08D3005D

:1005E0005308DA002B27003A0319682CFF3020004B

:1005F000D3005308C300092BC0262000D30059089C

:10060000433E86008701530881000130D300530820

:10061000D9072B27003A0319122B1030200059025A

:10062000031CFC2A053020004306031D372B08302D

:10063000D3005308C3004408D3005308E0005127F7

:100640002000D3005308C4004408D3005308E00638

:100650003B08D3005308E006A8012A08023ED30055

:100660005308AA000530D3005308D8005B2C103083

:100670005906031D5B2C2608031D5B2C0F30D3008D

:100680005308F4006008D4005408F5004430EE2606

:100690000F302000D3005308F400F5015A08D400AD

:1006A0005408F60043300E26003A03194D2C0C3046

:1006B00020004306031D332C1030D3005308D8000C

:1006C000360A031DC02BF430D3005308D6000C307B

:1006D000D3005308D5000330D3005308D700F830B7

:1006E00056020318972B5708433E860087010108DE

:1006F000D3005308F40056085F2720005708433EF4

:10070000860087010108D30055082B3E860087012B

:10071000530881000130D3005308D5070130D300BE

:100720005308D7070130D3005308D6076F2B512742

:100730002000D3005308B6003608D3005308F40055

:10074000F3305F2720003608D3005308C5003B086C

:10075000D3005308CA003C08D3005308CB003D081F

:10076000D3005308CC003E08D3005308CD003F0807

:10077000D3005308CE005130D3005308CF00D22B02

:100780003830D3005308F4000930D4005408F50081

:1007900045308726003A031D312C513020004F068A

:1007A000031DD82B4108D3005308D0003508EB2B8C

:1007B00052304F06031DE22B3108D3005308D000FE

:1007C0003208EB2B53304F06031DEF2B5008203E11

:1007D000860087010108D3005308D100332C07306D

:1007E0004F06031DFB2BFF30D3005308F400F030FD

:1007F0005F270100332C043020004F06031D0C2C12

:100800005108F5005008F400F601F60A172774089D

:100810002000D30053082E2C11304F06031D242C2A

:10082000500803191B2C2A080A3ED3005308AA00BB

:1008300022000C15332C20002A08023ED300530856

:10084000AA0022000C11332C123020004F06031D89

:10085000322C003022000C1901302000D000D101D0

:10086000332C2000D8010F302000D3005308F400AF

:10087000F501F50A5A08D4005408F60043300E2654

:100880002000A5010F30D3005308F4006008D40005

:100890005408F5004430EE265B2C01302000D300D4

:1008A0005308A50706302502031C5B2CA5011E304A

:1008B000D3005308A600200058080319682C4330C1

:1008C000F4000030F5005808D3005308F600DD2589

:1008D000003020008C1A0130DB0027085B0603196A

:1008E0007F2C5B080319772CFB01FB0A7B2C023061

:1008F000D3005308FB005B08D3005308A7003F2731

:1009000008000130F80078082000A4073C302406D5

:10091000031DA32CA4010130F8007808A3073C3084

:100920002306031DA32CA3010130F8007808A207B9

:1009300018302206031DA32CD8262000A201013066

:10094000A0070030A13DFE3029020318AB2C013076

:10095000F8007808A907FE3028020318B32C0130EC

:10096000F8007808A807280A031DB92CD301D40180

:10097000C02C2808F800F9017808D3007908D400C1

:100980005308F8007808D7000F305706031DCD2C08

:10099000FF30F8007808A800E00926080319D22CD7

:1009A0000130A602290A031DD82CD501D601DF2C5F

:1009B0002908F800F9017808D5007908D60055080B

:1009C000F8007808D7000A305702031CF12C1030C9

:1009D00057020318F12C2A08043EF8007808AA00F0

:1009E000080014305706031D08009130F4008730CA

:1009F000F5000930F8007808F600DD253B30F400FA

:100A00000030F5000430F8007808F600DD252000FD

:100A10002A080A3EF8007808AA00080002307B067F

:100A2000031D172D2000A9012A08023E5E2D7B031D

:100A3000031D612D2000290A031D212DDD01DE018A

:100A4000282D2908F800F9017808DD007908DE0072

:100A50005D08F8007808DF00FF30F8007808A9008A

:100A600010305F020318492D0A305F02031C612D0C

:100A70002A08283EF8007808AA00FF30F800780815

:100A8000F400F3305F27FF30F80078082000B7004B

:100A9000612D9B30F4008730F5000630F8007808AF

:100AA000F600DD253B30F4000030F5000430F8009E

:100AB0007808F600DD2520002A080A3EF8007808AC

:100AC000AA00FF30F8007808FB00080021005F084A

:100AD00003199E2DFA0104307A020318982D7A0822

:100AE000DF3E860087010A300102031C8F2D7A3514

:100AF000D63E86008701413F8A00403F0A0085318B

:100B000001302000DC007A08013EDF3E86008701CC

:100B10005C0881077A08DF3E860087018101013089

:100B20002000DC005C08FA0704307A02031C6F2DF9

:100B300001302000DC005C082100DE070E250327C1

:100B4000003A031D9F2D630000000000662D031076

:100B500020008C1E0314003003180130A700FF3062

:100B6000F7007708A900FF30F7007708A800E83001

:100B7000D5007030D600D301D40171305602003058

:100B800003195502031808005608F5005508F4002B

:100B9000F601F60A17277408F700200053082B3EC9

:100BA00086008701770881000130D3070030D43DEB

:100BB0000130D5070030D63DBD2D8B1376080319C3

:100BC0000A2E74088400750885000008F7002100CB

:100BD0003808A03E86008701770881000130F407BD

:100BE0000030F53D0130F60217303802031CFA2DB3

:100BF000B801FE2D0130F7007708B807390838062C

:100C0000031DDE2DBA01BA0A11168B173A08031913

:100C1000DD2D062E210011168B1708002000DF00A5

:100C2000DE01DD0174080319232E5F0886008701A9

:100C30000108F7007708DE070130F7007708DF07C3

:100C40000130F402122E750803192E2E5E08760666

:100C5000F7005F0886008701770881005F0886003B

:100C6000870176085E06F70077080106031D3A2E15

:100C7000DD01DD0A5D08080023001908F000700896

:100C8000F100210055080319492E54085306031991

:100C90000800D5017108F0005308BB3E86008701AB

:100CA0007008810017305302031C582ED3015C2EAC

:100CB0000130F0007008D30754085306031D0800E4

:100CC000D501D50A080021003908380603193A0869

:100CD0000319852E3908A03E8600870101082300EC

:100CE0009A00173021003902031C782EB9017C2E9E

:100CF0000130F0007008B9073908380603191112DD

:100D00003A0803190800BA01080011120800F80097

:100D1000F70175080319A52E740886008701780865

:100D2000840085010008010603199A2EF701F70ACD

:100D3000F501F50A0130F5020130F6007608F407F6

:100D40000130F6007608F807892E77080800013090

:100D5000F8000030F900B5277A27B1270130F807ED

:100D60000030F93D78037904031DAE2E8030320047

:100D700098008627A725200097170B178B170800C8

:100D8000F5018B1321005408BB3E86008701010842

:100D9000F4007408F50017305402031CD12ED4015E

:100DA000D52E0130F4007408D4078B17750808009D

:100DB0002000320A031908000130B1070030B23DAB

:100DC0003108F7007708F400EE305F272000320882

:100DD000F7007708F400EF305F270800F800740888

:100DE000031908000130F4027508F600740878074A

:100DF000F700770886008701760881067408F600F8

:100E00007608F506EF2E8B132100380839020318F7

:100E10000E2F3803FF3A3907183E112F3803FF3AD7

:100E20003907F4007408F5008B17750808006C305A

:100E30008600003087007608810075082000E900F0

:100E40007408E80082310622873120006B08F50023

:100E50006A08F40008008B13210054085302031C95

:100E6000352F5403FF3A5307392F5403FF3A5307E2

:100E7000183EF4007408F5008B1775080800200070

:100E80002A08031908000130AA0222000C080139BF

:100E9000F4000130F4060C087406FE3974068C0068

:100EA000080021005E08F4007408F500750A031DAF

:100EB0005D2FAA30F4007408F50075080800F600EC

:100EC0007608F50075082000E8007408E9008B1327

:100ED0008231382287318B170800B7340734B63493

:100EE0000734E334023481340434003400340034F1

:100EF00000340034283021008C0023008C0139306C

:100F000024008C00383022008C0008002000981249

:100F10001813981795011F30960090122100901613

:100F20000800413454342B344E3441344D3445346C

:100F3000433444340034413454342B345034493431

:100F40004E340034FE0012001E00FE0BA32F0034AE

:100F5000640080010131890BA92F0034A726662582

:100F6000C52A210091160800FF3408000800080077

:100F7000FF00FF00FF00FF00FF00FF00FF00FF0079

:100F8000FF00FF00FF00FF00FF00FF00FF00FF0069

:100F9000FF00FF00FF00FF00FF00FF00FF00FF0059

:100FA000FF00FF00FF00FF00FF00FF00FF00FF0049

:100FB000FF00FF00FF00FF00FF00FF00FF00FF0039

:100FC000FF00FF00FF00FF00FF00FF00FF00FF0029

:100FD000FF00FF00FF00FF00FF00FF00FF00FF0019

:100FE000FF00FF00FF00FF00FF00FF00FF00FF0009

:100FF000FF00FF00FF00FF00FF00FF00FF00FF00F9

:020000040001F9

:08000E00FCFF52FFFFDFFFFFC2

:04E1E0000134413491
:02E1E400033402

:02E1F8000134F0
:02E1FC000134EC

:00000001FF

