:100000000F28FF00FF00FF008031C3308600203042
:10001000870020007508F3008231A42A0900102807
:10002000F001F101F201203084000030850027301A
:100030008622A030840000308500453086222000D2
:10004000953086002030870025288F3032009905B2
:10005000F03099051B1E2A28283021008C0023002F
:100060008C01393024008C0003303C00A400143093
:100070003D009400243023009E009F1190309D008D
:100080003F21223023009B0051287208A03E8400AB
:100090008501230019088000F20A20009112AA01AC
:1000A000AB012000911A4528AA0A0319AB0A2A0AB3
:1000B000031D51282B0A031D512822000C14053062
:1000C0002000AD0021002003031D8D28FF302000FB
:1000D000EC0043307206031D88282100220820000E
:1000E000EB00210021082000EA00A330E8000030E6
:1000F000E90002306B02A03003196A02031C882851
:1001000008306B02003003196A0203188828B121F5
:1001100020006C082100A100302902302006031DB8
:10012000BF2870302000E900F330E8000130EC0017
:100130001D22AC01AC0AF33021002102031CB128BE
:10014000F83021020318A82820006A0A031DB028ED
:1001500070302000E900FF30E8001D226A0A031D0C
:10016000AC0120002C0803193029210021082000AF
:10017000E800210023082000E9004F223029043044
:100180002006031DD22822082000E90021002108B2
:100190002000E8000130EC001D226A082100A300C5
:1001A000A401302906302006031DD828010030297B
:1001B00005302006031930297208031D2E297030DE
:1001C0002000E900F030E8000130EC001D226A0850
:1001D000F0007030E900FC30E8000130EC001D2236
:1001E0006A087006031D2E296A0A03192E29023097
:1001F000E900A030E800EC01F101083069020030AC
:100200000319680203180D291D226A08F1076B08FB
:10021000F107E80A0319E90AFD287030E900F13016
:10022000E8000130EC001D226A087106031D232935
:1002300071080319232922000C101F303F00ED0024
:100240008231A02A2E29F030E800FF30E9004F2249
:10025000F2302000E800FF30E9004F222000AD011D
:1002600020002D08EA00A030E8000030E900382224
:10027000FF302100A000F20122000C105128413172
:1002800020008C1AAF2922000C103C3001222000E3
:100290008C1AAF2922000C1420008C1E4C2922003D
:1002A0000C10CF3023009B0008302000EA00823081
:1002B000E9006D30E80038220A3001220030FF3FAB
:1002C00070302000E900E830E8000130EC007130C7
:1002D000690200300319680203187C291D227F3F40
:1002E0002F3E840085016A0880007F3F013EFF3F6A
:1002F000E80A0319E90A6729223023009B00093024
:100300002000EA008230E9006330E800382204303F
:100310002000EA003F30E8000030E90038220A30CF
:10032000012206302000EA008230E9007F30E80038
:10033000382204302000EA002F30E8000030E900C5
:100340003822F0302000E800FF30E900F830680281
:100350000318AE294F222000E80AA62901007F31A8
:10036000080041312000EC0131009511151395185A
:10037000B72920006B083100920020006A08310084
:100380009100151615157622310095160030FF3FA5
:1003900020006B083100920020006A0831009100B3
:1003A0007F3FFE00FF01FE35FF0D200068087E073D
:1003B000840069087F3D8500003F31009300013FC4
:1003C000940013082000EC07310014082000EC070B
:1003D0007F3F1F3A031DEE2931009512762220003F
:1003E000EA0A0319EB0A7F3F013EFF3F7F3FFF0010
:1003F00020307F02031CC829EC13310015117F3116
:1004000008004131FF3F7F3F03191B2AFF302000C6
:10041000A800FF30A9000130A8020030A93B280A3B
:10042000031D0B2A290A031D0B2A7F3FF40001300C
:100430007402FF3F032A7F31080020006C0C31005A
:10044000031C1513031815172000690831009200CA
:1004500020006808310091001514000000003100F0
:1004600014082000EB00310013082000EA00080007
:1004700020006A0803194B2A68088400690885006F
:10048000000823009A002000E80A0319E90AEA0399
:10049000111A382A482A23009E1808004B2A3100D6
:1004A000951115171515703092002000680831005D
:1004B00091002000690831009300762231009518E0
:1004C0005E2A15110800413454342B344E34413423
:1004D0004D344534433444340034413454342B34A3
:1004E00042344134553444343734003455303100CB
:1004F0009600AA30960095140000000008004134D0
:1005000054342B34503449344E3400346400800168
:100510000131890B872A0034FF00FF00FF00FF0034
:10052000FF00FF00FF00FF00FF00FF00FF00FF00D3
:10053000FF00FF00FF00FF00FF00FF00FF00FF00C3
:10054000C92AFF00FF00FF007E14823120007F08CF
:10055000F300901EB22A0A30F20072082100DF0078
:1005600020009012911EBA2A0130F2007208AA00EF
:100570003C26C02A111EC02A2100111EC02A632653
:10058000200091189110111B11137308FF007E10A9
:100590000900CA2ACD27E000863084008730850014
:1005A000D6308600003087000D30BB27FA01FB01F2
:1005B000FC0120308400003085003330C127A0309A
:1005C0008400003085003630C1277E102000C72F00
:1005D0002000DA01D901DB01D5018B132A080319A8
:1005E000FD2A2A08013ED3005308AA0003302A023C
:1005F000031CFD2AAA01D501D50A8B17550803193A
:1006000008003608D3005308DB005B0A031D0C2BDF
:100610002F08D3005308DB00FF30D3005308C3007A
:100620001E2BD9262000D3005A08433E860087019E
:10063000530881000130D3005308DA074427003AF9
:100640000319272B103020005A02031C112B0530F0
:1006500020004306031D4C2B0830D3005308C30071
:100660004408D3005308E0006A272000D300530851
:10067000C4004408D3005308E0062F08D3005308F1
:10068000E006A7012908023ED3005308A90005305F
:10069000D3005308D900702C10305A06031D702C5B
:1006A0002608031D702C0F30D3005308F400600897
:1006B000D4005408F500443007270F302000D30041
:1006C0005308F400F5015B08D4005408F6004330E9
:1006D0000E26003A0319622C0C3020004306031D3D
:1006E000482C1030D3005308D900360A031DD52BEF
:1006F000F430D3005308D7000C30D3005308D60091
:100700000330D3005308D800F83057020318AC2B3D
:100710005808433E860087010108D3005308F400BF
:100720005708782720005808433E860087010108B3
:10073000D30056082B3E8600870153088100013004
:10074000D3005308D6070130D3005308D80701302F
:10075000D3005308D707842B6A272000D3005308FF
:10076000B6003608D3005308F400F3307827200091
:100770003608D3005308C5003B08D3005308CA000D
:100780003C08D3005308CB003D08D3005308CC00ED
:100790003E08D3005308CD003F08D3005308CE00D5
:1007A0005130D3005308CF00E72B3730D300530824
:1007B000F4000930D4005408F50046308726003A8A
:1007C000031D462C513020004F06031DED2B410820
:1007D000D3005308D0003508002C52304F06031DBB
:1007E000F72B3108D3005308D0003208002C5330C7
:1007F0004F06031D042C5008203E86008701010887
:10080000D3005308D100482C07304F06031D102C8D
:10081000FF30D3005308F400F03078270100482C53
:10082000043020004F06031D212C5108F50050080C
:10083000F400F601F60A302774082000D3005308AC
:10084000432C11304F06031D392C50080319302C4E
:1008500029080A3ED3005308A90022000C15482C91
:1008600020002908023ED3005308A90022000C11E1
:10087000482C123020004F06031D472C0030220068
:100880000C1901302000D000D101482C2000D901E2
:100890000F302000D3005308F400F501F50A5B087F
:1008A000D4005408F60043300E262000A5010F3076
:1008B000D3005308F4006008D4005408F500443015
:1008C0000727702C01302000D3005308A5070630FD
:1008D0002502031C702CA5011E30D3005308A6006E
:1008E00020005908031908004330F4000030F500D7
:1008F0005908D3005308F600DD2508000130F80040
:1009000078082000A4073C302406031DA02CA40175
:100910000130F8007808A3073C302306031DA02C03
:10092000A3010130F8007808A20718302206031D41
:10093000A02CF1262000A2010130A0070030A13D2B
:10094000FE3028020318A82C0130F8007808A80708
:10095000FE3027020318B02C0130F8007808A707F2
:10096000270A031DB62CD301D401BD2C2708F8009B
:10097000F9017808D3007908D4005308F800780802
:10098000D7000F305706031DCA2CFF30F800780837
:10099000A700E00926080319CF2C0130A602280A77
:1009A000031DD52CD501D601DC2C2808F800F9014F
:1009B0007808D5007908D6005508F8007808D700DF
:1009C0000A305702031CEE2C103057020318EE2C8D
:1009D0002908043EF8007808A900080014305706DA
:1009E000031D0800AA30F4008730F5000930F80034
:1009F0007808F600DD253B30F4000030F5000430C7
:100A0000F8007808F600DD25200029080A3EF800E5
:100A10007808A900080002307C06031D142D200070
:100A2000A8012908023E5D2D7C03031D602D2000D6
:100A3000280A031D1E2DDD01DE01252D2808F800E2
:100A4000F9017808DD007908DE005D08F800780813
:100A5000DF00FF30F8007808A80010305F020318AC
:100A6000482D0A305F02031C602D2908283EF8003B
:100A70007808A900FF30F8007808F400F3307827F0
:100A8000FF30F80078082000B60022000C11602D1D
:100A9000B430F4008730F5000630F8007808F6002E
:100AA000DD252B30F4000030F5000430F800780824
:100AB000F600DD25200029080A3EF8007808A90084
:100AC000FF30F8007808FC00080021005F080319D7
:100AD0009D2DFA0104307A020318972D7A08DF3E23
:100AE000860087010A300102031C8E2D7A35D63E1E
:100AF00086008701413F8A00403F0A00853101306E
:100B00002000DC007A08013EDF3E860087015C0899
:100B100081077A08DF3E86008701810101302000CD
:100B2000DC005C08FA0704307A02031C6E2D0130E9
:100B30002000DC005C082100DE070B251C27003AA2
:100B4000031D9E2D630000000000652DE83020008D
:100B5000D5007030D600D301D40171305602003078
:100B6000031955020318CD2D5608F5005508F40059
:100B7000F601F60A30277408F700200053082B3ED0
:100B800086008701770881000130D3070030D43D0B
:100B90000130D5070030D63DAD2D03108C1E031457
:100BA000003003180130FB00FF30F7007708A80081
:100BB000FF30F7007708A70008008B1376080319A9
:100BC0000A2E74088400750885000008F7002100CB
:100BD0003808A03E86008701770881000130F407BD
:100BE0000030F53D0130F60217303802031CFA2DB3
:100BF000B801FE2D0130F7007708B807390838062C
:100C0000031DDE2DBA01BA0A11168B173A08031913
:100C1000DD2D062E210011168B1708002000DF00A5
:100C2000DE01DD0174080319232E5F0886008701A9
:100C30000108F7007708DE070130F7007708DF07C3
:100C40000130F402122E750803192E2E5E08760666
:100C5000F7005F0886008701770881005F0886003B
:100C6000870176085E06F70077080106031D3A2E15
:100C7000DD01DD0A5D08080023001908F000700896
:100C8000F100210055080319492E54085306031991
:100C90000800D5017108F0005308BB3E86008701AB
:100CA0007008810017305302031C582ED3015C2EAC
:100CB0000130F0007008D30754085306031D0800E4
:100CC000D501D50A080021003908380603193A0869
:100CD0000319852E3908A03E8600870101082300EC
:100CE0009A00173021003902031C782EB9017C2E9E
:100CF0000130F0007008B9073908380603191112DD
:100D00003A0803190800BA01080011120800F80097
:100D1000F70175080319A52E740886008701780865
:100D2000840085010008010603199A2EF701F70ACD
:100D3000F501F50A0130F5020130F6007608F407F6
:100D40000130F6007608F807892E77080800013090
:100D5000F8000030F900CE279327CA270130F807A2
:100D60000030F93D78037904031DAE2E8030320047
:100D700098009F27A625200097170B178B170800B0
:100D8000003020008C1A0130F6007B08760603192B
:100D9000D72E76080319CF2EFC01FC0AD32E023081
:100DA000F5007508FC007608F5007508FB0058276B
:100DB0000800F5018B1321005408BB3E8600870113
:100DC0000108F4007408F50017305402031CEA2EE1
:100DD000D401EE2E0130F4007408D4078B17750887
:100DE00008002000320A031908000130B107003062
:100DF000B23D3108F7007708F400EE307827200084
:100E00003208F7007708F400EF3078270800F80080
:100E10007408031908000130F4027508F60074081C
:100E20007807F7007708860087017608810674083E
:100E3000F6007608F506082F8B13210038083902D2
:100E40000318272F3803FF3A3907183E2A2F380393
:100E5000FF3A3907F4007408F5008B17750808008D
:100E60006C3086000030870076088100750820000D
:100E7000E9007408E80082311D22873120006B08E8
:100E8000F5006A08F40008008B132100540853028F
:100E9000031C4E2F5403FF3A5307522F5403FF3ABB
:100EA0005307183EF4007408F5008B177508080006
:100EB00020002908031908000130A90222000C08AB
:100EC0000139F4000130F4060C087406FE3974068A
:100ED0008C00080021005E08F4007408F500750A13
:100EE000031D762FAA30F4007408F5007508080079
:100EF000F6007608F50075082000E8007408E9009F
:100F00008B1382314F2287318B170800E83402346B
:100F1000CF340734C03406347E3404340034003413
:100F2000003400340034283021008C0023008C0170
:100F3000393024008C00383022008C00080020005A
:100F400098121813981795011F30960090122100DF
:100F500090160800413454342B344E3441344D340F
:100F60004534433444340034413454342B34503405
:100F700049344E340034FE0012001E00FE0BBC2F1C
:100F80000034640080010131890BC22F0034A72690
:100F90006525C92A210091160800FF3408000800C1
:100FA000FF00FF00FF00FF00FF00FF00FF00FF0049
:100FB000FF00FF00FF00FF00FF00FF00FF00FF0039
:100FC000FF00FF00FF00FF00FF00FF00FF00FF0029
:100FD000FF00FF00FF00FF00FF00FF00FF00FF0019
:100FE000FF00FF00FF00FF00FF00FF00FF00FF0009
:100FF000FF00FF00FF00FF00FF00FF00FF00FF00F9
:020000040001F9
:08000E00FCFF52FFFFDFFFFFC2
:04E1E0000134cd3405
:02E1E400023403
:02E1F8000134F0
:02E1FC000134EC
:00000001FF
