:100000000F28FF00FF00FF008031C3308600203042
:10001000870020007508F3008231A42A0900102807
:10002000F001F101F20120308400003085000B3036
:100030007D22A03084000030850045307D222000E4
:10004000953086002030870025288F3032009905B2
:10005000F03099051B1E2A28283021008C0023002F
:100060008C01393024008C0003303C00A400143093
:100070003D009400243023009E009F1190309D008D
:100080003F21223023009B0051287208A03E8400AB
:100090008501230019088000F20A20009112A201B4
:1000A000A3012000911A4528A20A0319A30A220AD3
:1000B000031D5128230A031D512822000C1405306A
:1000C0002000A50021002003031D8D28FF30200003
:1000D000EC0043307206031D88282100220820000E
:1000E000EB00210021082000EA00A330E8000030E6
:1000F000E90002306B02A03003196A02031C882851
:1001000008306B02003003196A0203188828A821FE
:1001100020006C082100A100302902302006031DB8
:10012000BF2870302000E900F330E8000130EC0017
:100130001422A401A40AF33021002102031CB128D7
:10014000F83021020318A82820006A0A031DB028ED
:1001500070302000E900FF30E80014226A0A031D15
:10016000A4012000240803193029210021082000BF
:10017000E800210023082000E9004622302904304D
:100180002006031DD22822082000E90021002108B2
:100190002000E8000130EC0014226A082100A300CE
:1001A000A401302906302006031DD828010030297B
:1001B00005302006031930297208031D2E297030DE
:1001C0002000E900F030E8000130EC0014226A0859
:1001D000A6007030E900FC30E8000130EC00142289
:1001E0006A082606031D2E296A0A03192E290230E1
:1001F000E900A030E800EC01F101083069020030AC
:100200000319680203180D2914226A08F1076B0804
:10021000F107E80A0319E90AFD287030E900F13016
:10022000E8000130EC0014226A087106031D23293E
:1002300071080319232922000C101F303F00ED0024
:100240008231A02A2E29F030E800FF30E900462252
:10025000F2302000E800FF30E90046222000A5012E
:1002600020002508EA00A030E8000030E9002F2235
:10027000FF302100A000F20122000C1051282000C4
:100280008C1A080022000C103C30F82120008C1A37
:10029000080022000C1420008C1E4B2922000C1098
:1002A000CF3023009B0008302000EA008230E900B4
:1002B0006430E8002F220A30F82170302000E90075
:1002C000F830E8000130EC000430700203187429A3
:1002D00014227008273E840085016A088000F00A15
:1002E000E80A0319E90A6429223023009B00093037
:1002F0002000EA008230E9005A30E8002F22043062
:100300002000EA002730E8000030E9002F220A3000
:10031000F82106302000EA008230E9007630E8005B
:100320002F2204302000EA002730E8000030E900E6
:100330002F22F0302000E800FF30E900F83068029A
:100340000318A62946222000E80A9E290100080079
:1003500041312000EC013100951115139518AE299B
:1003600020006B083100920020006A0831009100E3
:10037000151615156D22310095160030FF3F20002F
:100380006B083100920020006A08310091007F3F25
:10039000FE00FF01FE35FF0D200068087E07840087
:1003A00069087F3D8500003F31009300013F9400C4
:1003B00013082000EC07310014082000EC077F3FF1
:1003C0001F3A031DE529310095126D222000EA0A2B
:1003D0000319EB0A7F3F013EFF3F7F3FFF002030C4
:1003E0007F02031CBF29EC13310015117F31080077
:1003F0004131FF3F7F3F0319122AFF302000A00048
:10040000FF30A1000130A0020030A13B200A031DF3
:10041000022A210A031D022A7F3FF40001307402E0
:10042000FF3FFA297F31080020006C0C3100031CCB
:1004300015130318151720006908310092002000D9
:100440006808310091001514000000003100140804
:100450002000EB00310013082000EA000800200013
:100460006A080319422A68088400690885000008A0
:1004700023009A002000E80A0319E90AEA03111A86
:100480002F2A3F2A23009E180800422A3100951186
:100490001517151570309200200068083100910082
:1004A00020006908310093006D2231009518552A0B
:1004B00015110800413454342B344E3441344D343A
:1004C0004534433444340034413454342B344234BE
:1004D00041345534443437340034553031009600BB
:1004E000AA309600951400000000080041345434EE
:1004F0002B34503449344E340034640080010131CF
:10050000890B7E2A0034FF00FF00FF00FF00FF0080
:10051000FF00FF00FF00FF00FF00FF00FF00FF00E3
:10052000FF00FF00FF00FF00FF00FF00FF00FF00D3
:10053000FF00FF00FF00FF00FF00FF00FF00FF00C3
:10054000C52AFF00FF00FF007E14823120007F08D3
:10055000F300901EB22A0A30F20072082100DF0078
:1005600020009012911EB62A3E26BC2A111EBC2ADB
:100570002100111EBC2A6526200091189110111B24
:1005800011137308FF007E100900C62AB627E00089
:100590006F30840087308500D630860000308700B9
:1005A0000D30A427FA01FB012030840000308500C3
:1005B0003330AA27A0308400003085003630AA27C7
:1005C0007E102000B02F2000D901D801DA013608B2
:1005D000D3005308DA005A0A031DF22A3B08D3005D
:1005E0005308DA002D27003A0319682CFF30200049
:1005F000D3005308C300092BC2262000D30059089A
:10060000433E86008701530881000130D300530820
:10061000D9072D27003A0319122B10302000590258
:10062000031CFC2A053020004306031D372B08302D
:10063000D3005308C3004408D3005308E0005327F5
:100640002000D3005308C4004408D3005308E00638
:100650003B08D3005308E006A8012A08023ED30055
:100660005308AA000530D3005308D8005B2C103083
:100670005906031D5B2C2608031D5B2C0F30D3008D
:100680005308F4006008D4005408F5004430F02604
:100690000F302000D3005308F400F5015A08D400AD
:1006A0005408F60043301026003A03194D2C0C3044
:1006B00020004306031D332C1030D3005308D8000C
:1006C000360A031DC02BF430D3005308D6000C307B
:1006D000D3005308D5000330D3005308D700F830B7
:1006E00056020318972B5708433E860087010108DE
:1006F000D3005308F4005608612720005708433EF2
:10070000860087010108D30055082B3E860087012B
:10071000530881000130D3005308D5070130D300BE
:100720005308D7070130D3005308D6076F2B532740
:100730002000D3005308B6003608D3005308F40055
:10074000F330612720003608D3005308C5003B086A
:10075000D3005308CA003C08D3005308CB003D081F
:10076000D3005308CC003E08D3005308CD003F0807
:10077000D3005308CE005130D3005308CF00D22B02
:100780003730D3005308F4000930D4005408F50082
:1007900046308926003A031D312C513020004F0687
:1007A000031DD82B4108D3005308D0003508EB2B8C
:1007B00052304F06031DE22B3108D3005308D000FE
:1007C0003208EB2B53304F06031DEF2B5008203E11
:1007D000860087010108D3005308D100332C07306D
:1007E0004F06031DFB2BFF30D3005308F400F030FD
:1007F00061270100332C043020004F06031D0C2C10
:100800005108F5005008F400F601F60A192774089B
:100810002000D30053082E2C11304F06031D242C2A
:10082000500803191B2C2A080A3ED3005308AA00BB
:1008300022000C15332C20002A08023ED300530856
:10084000AA0022000C11332C123020004F06031D89
:10085000322C003022000C1901302000D000D101D0
:10086000332C2000D8010F302000D3005308F400AF
:10087000F501F50A5A08D4005408F6004330102652
:100880002000A5010F30D3005308F4006008D40005
:100890005408F5004430F0265B2C01302000D300D2
:1008A0005308A50706302502031C5B2CA5011E304A
:1008B000D3005308A600200058080319682C4330C1
:1008C000F4000030F5005808D3005308F600DF2587
:1008D000003020008C1A0130DB0027085B0603196A
:1008E0007F2C5B080319772CFB01FB0A7B2C023061
:1008F000D3005308FB005B08D3005308A70041272F
:1009000008000130F80078082000A4073C302406D5
:10091000031DA32CA4010130F8007808A3073C3084
:100920002306031DA32CA3010130F8007808A207B9
:1009300018302206031DA32CDA262000A201013064
:10094000A0070030A13DFE3029020318AB2C013076
:10095000F8007808A907FE3028020318B32C0130EC
:10096000F8007808A807280A031DB92CD301D40180
:10097000C02C2808F800F9017808D3007908D400C1
:100980005308F8007808D7000F305706031DCD2C08
:10099000FF30F8007808A800E00926080319D22CD7
:1009A0000130A602290A031DD82CD501D601DF2C5F
:1009B0002908F800F9017808D5007908D60055080B
:1009C000F8007808D7000A305702031CF12C1030C9
:1009D00057020318F12C2A08043EF8007808AA00F0
:1009E000080014305706031D08009330F4008730C8
:1009F000F5000930F8007808F600DF253B30F400F8
:100A00000030F5000430F8007808F600DF252000FB
:100A10002A080A3EF8007808AA00080002307B067F
:100A2000031D172D2000A9012A08023E602D7B031B
:100A3000031D632D2000290A031D212DDD01DE0188
:100A4000282D2908F800F9017808DD007908DE0072
:100A50005D08F8007808DF00FF30F8007808A9008A
:100A600010305F0203184B2D0A305F02031C632D08
:100A70002A08283EF8007808AA00FF30F800780815
:100A8000F400F3306127FF30F80078082000B6004A
:100A900022000C11632D9D30F4008730F5000630E4
:100AA000F8007808F600DF253B30F4000030F50050
:100AB0000430F8007808F600DF2520002A080A3EF6
:100AC000F8007808AA00FF30F8007808FB0008005A
:100AD00021005F080319A02DFA0104307A020318DF
:100AE0009A2D7A08DF3E860087010A300102031C36
:100AF000912D7A35D63E86008701413F8A00403FDE
:100B00000A00853101302000DC007A08013EDF3E1A
:100B1000860087015C0881077A08DF3E860087012E
:100B2000810101302000DC005C08FA0704307A0201
:100B3000031C712D01302000DC005C082100DE0761
:100B40000E250527003A031DA12D630000000000BB
:100B5000682D031020008C1E031400300318013090
:100B6000A700FF30F7007708A900FF30F7007708EB
:100B7000A800E830D5007030D600D301D401713020
:100B80005602003003195502031808005608F500F4
:100B90005508F400F601F60A19277408F70020003A
:100BA00053082B3E86008701770881000130D30768
:100BB0000030D43D0130D5070030D63DBF2D8B131A
:100BC000760803190C2E7408840075088500000847
:100BD000F70021003808A03E8600870177088100D1
:100BE0000130F4070030F53D0130F60217303802CD
:100BF000031CFC2DB801002E0130F7007708B80760
:100C000039083806031DE02DBA01BA0A11168B17F0
:100C10003A080319DF2D082E210011168B17080042
:100C20002000DF00DE01DD0174080319252E5F08B6
:100C3000860087010108F7007708DE070130F7001A
:100C40007708DF070130F402142E75080319302EDF
:100C50005E087606F7005F08860087017708810046
:100C60005F088600870176085E06F70077080106B0
:100C7000031D3C2EDD01DD0A5D0808002300190874
:100C8000F0007008F1002100550803194B2E54089C
:100C9000530603190800D5017108F0005308BB3E44
:100CA000860087017008810017305302031C5A2EFA
:100CB000D3015E2E0130F0007008D30754085306AC
:100CC000031D0800D501D50A08002100390838069F
:100CD00003193A080319872E3908A03E86008701B8
:100CE000010823009A00173021003902031C7A2ED4
:100CF000B9017E2E0130F0007008B90739083806B6
:100D0000031911123A0803190800BA010800111258
:100D10000800F800F70175080319A72E740886006B
:100D200087017808840085010008010603199C2EBC
:100D3000F701F70AF501F50A0130F5020130F60076
:100D40007608F4070130F6007608F8078B2E77084E
:100D500008000130F8000030F900B7277C27B327DE
:100D60000130F8070030F93D78037904031DB02EF7
:100D70008030320098008827A925200097170B178C
:100D80008B170800F5018B1321005408BB3E860029
:100D900087010108F4007408F50017305402031CA1
:100DA000D32ED401D72E0130F4007408D4078B174A
:100DB000750808002000320A031908000130B10745
:100DC0000030B23D3108F7007708F400EE306127BB
:100DD00020003208F7007708F400EF3061270800A0
:100DE000F8007408031908000130F4027508F600D1
:100DF00074087807F700770886008701760881066F
:100E00007408F6007608F506F12E8B1321003808D9
:100E100039020318102F3803FF3A3907183E132FF1
:100E20003803FF3A3907F4007408F5008B1775088A
:100E300008006C3086000030870076088100750855
:100E40002000E9007408E800823114228731200074
:100E50006B08F5006A08F40008008B1321005408A1
:100E60005302031C372F5403FF3A53073B2F5403FD
:100E7000FF3A5307183EF4007408F5008B17750805
:100E8000080020002A08031908000130AA022200E5
:100E90000C080139F4000130F4060C087406FE3920
:100EA00074068C00080021005E08F4007408F50048
:100EB000750A031D5F2FAA30F4007408F500750849
:100EC0000800F6007608F50075082000E8007408B0
:100ED000E9008B138231462287318B170800B93421
:100EE0000734B8340734E334023481340434003432
:100EF0000034003400340034283021008C002300FA
:100F00008C01393024008C00383022008C0008001D
:100F1000200098121813981795011F309600901210
:100F2000210090160800413454342B344E3441349F
:100F30004D344534433444340034413454342B3438
:100F4000503449344E340034FE0012001E00FE0BB3
:100F5000A52F0034640080010131890BAB2F0034D0
:100F6000A9266825C52A210091160800FF3408002B
:100F700008000800FF00FF00FF00FF00FF00FF0067
:100F8000FF00FF00FF00FF00FF00FF00FF00FF0069
:100F9000FF00FF00FF00FF00FF00FF00FF00FF0059
:100FA000FF00FF00FF00FF00FF00FF00FF00FF0049
:100FB000FF00FF00FF00FF00FF00FF00FF00FF0039
:100FC000FF00FF00FF00FF00FF00FF00FF00FF0029
:100FD000FF00FF00FF00FF00FF00FF00FF00FF0019
:100FE000FF00FF00FF00FF00FF00FF00FF00FF0009
:100FF000FF00FF00FF00FF00FF00FF00FF00FF00F9
:020000040001F9
:08000E00FCFF52FFFFDFFFFFC2
:04E1E00001344c3486
:02E1E400033402
:02E1F8000134F0
:02E1FC000134EC
:00000001FF
